{
	"data": {
		"bytecode": {
			"linkReferences": {},
			"object": "608060405234801562000010575f80fd5b506040518060400160405280600981526020017f4f7665726d696e743200000000000000000000000000000000000000000000008152506040518060400160405280600281526020017f4154000000000000000000000000000000000000000000000000000000000000815250815f90816200008d91906200030c565b5080600190816200009f91906200030c565b505050620003f0565b5f81519050919050565b7f4e487b71000000000000000000000000000000000000000000000000000000005f52604160045260245ffd5b7f4e487b71000000000000000000000000000000000000000000000000000000005f52602260045260245ffd5b5f60028204905060018216806200012457607f821691505b6020821081036200013a5762000139620000df565b5b50919050565b5f819050815f5260205f209050919050565b5f6020601f8301049050919050565b5f82821b905092915050565b5f600883026200019e7fffffffffffffffffffffffffffffffffffffffffffffffffffffffffffffffff8262000161565b620001aa868362000161565b95508019841693508086168417925050509392505050565b5f819050919050565b5f819050919050565b5f620001f4620001ee620001e884620001c2565b620001cb565b620001c2565b9050919050565b5f819050919050565b6200020f83620001d4565b620002276200021e82620001fb565b8484546200016d565b825550505050565b5f90565b6200023d6200022f565b6200024a81848462000204565b505050565b5b818110156200027157620002655f8262000233565b60018101905062000250565b5050565b601f821115620002c0576200028a8162000140565b620002958462000152565b81016020851015620002a5578190505b620002bd620002b48562000152565b8301826200024f565b50505b505050565b5f82821c905092915050565b5f620002e25f1984600802620002c5565b1980831691505092915050565b5f620002fc8383620002d1565b9150826002028217905092915050565b6200031782620000a8565b67ffffffffffffffff811115620003335762000332620000b2565b5b6200033f82546200010c565b6200034c82828562000275565b5f60209050601f83116001811462000382575f84156200036d578287015190505b620003798582620002ef565b865550620003e8565b601f198416620003928662000140565b5f5b82811015620003bb5784890151825560018201915060208501945060208101905062000394565b86831015620003db5784890151620003d7601f891682620002d1565b8355505b6001600288020188555050505b505050505050565b61252b80620003fe5f395ff3fe608060405234801561000f575f80fd5b50600436106100fe575f3560e01c806342842e0e11610095578063a22cb46511610064578063a22cb46514610298578063b88d4fde146102b4578063c87b56dd146102d0578063e985e9c514610300576100fe565b806342842e0e146101fe5780636352211e1461021a57806370a082311461024a57806395d89b411461027a576100fe565b80630b93381b116100d15780630b93381b1461019c5780631249c58b146101ba57806318160ddd146101c457806323b872dd146101e2576100fe565b806301ffc9a71461010257806306fdde0314610132578063081812fc14610150578063095ea7b314610180575b5f80fd5b61011c600480360381019061011791906117ba565b610330565b60405161012991906117ff565b60405180910390f35b61013a610411565b60405161014791906118a2565b60405180910390f35b61016a600480360381019061016591906118f5565b6104a0565b604051610177919061195f565b60405180910390f35b61019a600480360381019061019591906119a2565b6104e2565b005b6101a46105f8565b6040516101b191906117ff565b60405180910390f35b6101c261060a565b005b6101cc61067b565b6040516101d991906119ef565b60405180910390f35b6101fc60048036038101906101f79190611a08565b610681565b005b61021860048036038101906102139190611a08565b6106e1565b005b610234600480360381019061022f91906118f5565b610700565b604051610241919061195f565b60405180910390f35b610264600480360381019061025f9190611a58565b610784565b60405161027191906119ef565b60405180910390f35b610282610838565b60405161028f91906118a2565b60405180910390f35b6102b260048036038101906102ad9190611aad565b6108c8565b005b6102ce60048036038101906102c99190611c17565b6108de565b005b6102ea60048036038101906102e591906118f5565b610940565b6040516102f791906118a2565b60405180910390f35b61031a60048036038101906103159190611c97565b6109a5565b60405161032791906117ff565b60405180910390f35b5f7f80ac58cd000000000000000000000000000000000000000000000000000000007bffffffffffffffffffffffffffffffffffffffffffffffffffffffff1916827bffffffffffffffffffffffffffffffffffffffffffffffffffffffff191614806103fa57507f5b5e139f000000000000000000000000000000000000000000000000000000007bffffffffffffffffffffffffffffffffffffffffffffffffffffffff1916827bffffffffffffffffffffffffffffffffffffffffffffffffffffffff1916145b8061040a575061040982610a33565b5b9050919050565b60605f805461041f90611d02565b80601f016020809104026020016040519081016040528092919081815260200182805461044b90611d02565b80156104965780601f1061046d57610100808354040283529160200191610496565b820191905f5260205f20905b81548152906001019060200180831161047957829003601f168201915b5050505050905090565b5f6104aa82610a9c565b60045f8381526020019081526020015f205f9054906101000a900473ffffffffffffffffffffffffffffffffffffffff169050919050565b5f6104ec82610700565b90508073ffffffffffffffffffffffffffffffffffffffff168373ffffffffffffffffffffffffffffffffffffffff160361055c576040517f08c379a000000000000000000000000000000000000000000000000000000000815260040161055390611da2565b60405180910390fd5b8073ffffffffffffffffffffffffffffffffffffffff1661057b610ae7565b73ffffffffffffffffffffffffffffffffffffffff1614806105aa57506105a9816105a4610ae7565b6109a5565b5b6105e9576040517f08c379a00000000000000000000000000000000000000000000000000000000081526004016105e090611e30565b60405180910390fd5b6105f38383610aee565b505050565b5f600561060433610784565b14905090565b600361061533610784565b1115610656576040517f08c379a000000000000000000000000000000000000000000000000000000000815260040161064d90611e98565b60405180910390fd5b60065f81548092919061066890611ee3565b919050555061067933600654610ba4565b565b60065481565b61069261068c610ae7565b82610db7565b6106d1576040517f08c379a00000000000000000000000000000000000000000000000000000000081526004016106c890611f9a565b60405180910390fd5b6106dc838383610e4b565b505050565b6106fb83838360405180602001604052805f8152506108de565b505050565b5f8061070b83611137565b90505f73ffffffffffffffffffffffffffffffffffffffff168173ffffffffffffffffffffffffffffffffffffffff160361077b576040517f08c379a000000000000000000000000000000000000000000000000000000000815260040161077290612002565b60405180910390fd5b80915050919050565b5f8073ffffffffffffffffffffffffffffffffffffffff168273ffffffffffffffffffffffffffffffffffffffff16036107f3576040517f08c379a00000000000000000000000000000000000000000000000000000000081526004016107ea90612090565b60405180910390fd5b60035f8373ffffffffffffffffffffffffffffffffffffffff1673ffffffffffffffffffffffffffffffffffffffff1681526020019081526020015f20549050919050565b60606001805461084790611d02565b80601f016020809104026020016040519081016040528092919081815260200182805461087390611d02565b80156108be5780601f10610895576101008083540402835291602001916108be565b820191905f5260205f20905b8154815290600101906020018083116108a157829003601f168201915b5050505050905090565b6108da6108d3610ae7565b8383611170565b5050565b6108ef6108e9610ae7565b83610db7565b61092e576040517f08c379a000000000000000000000000000000000000000000000000000000000815260040161092590611f9a565b60405180910390fd5b61093a848484846112d7565b50505050565b606061094b82610a9c565b5f610954611333565b90505f8151116109725760405180602001604052805f81525061099d565b8061097c84611349565b60405160200161098d9291906120e8565b6040516020818303038152906040525b915050919050565b5f60055f8473ffffffffffffffffffffffffffffffffffffffff1673ffffffffffffffffffffffffffffffffffffffff1681526020019081526020015f205f8373ffffffffffffffffffffffffffffffffffffffff1673ffffffffffffffffffffffffffffffffffffffff1681526020019081526020015f205f9054906101000a900460ff16905092915050565b5f7f01ffc9a7000000000000000000000000000000000000000000000000000000007bffffffffffffffffffffffffffffffffffffffffffffffffffffffff1916827bffffffffffffffffffffffffffffffffffffffffffffffffffffffff1916149050919050565b610aa581611413565b610ae4576040517f08c379a0000000000000000000000000000000000000000000000000000000008152600401610adb90612002565b60405180910390fd5b50565b5f33905090565b8160045f8381526020019081526020015f205f6101000a81548173ffffffffffffffffffffffffffffffffffffffff021916908373ffffffffffffffffffffffffffffffffffffffff160217905550808273ffffffffffffffffffffffffffffffffffffffff16610b5e83610700565b73ffffffffffffffffffffffffffffffffffffffff167f8c5be1e5ebec7d5bd14f71427d1e84f3dd0314c0f7b2291e5b200ac8c7c3b92560405160405180910390a45050565b5f73ffffffffffffffffffffffffffffffffffffffff168273ffffffffffffffffffffffffffffffffffffffff1603610c12576040517f08c379a0000000000000000000000000000000000000000000000000000000008152600401610c0990612155565b60405180910390fd5b610c1b81611413565b15610c5b576040517f08c379a0000000000000000000000000000000000000000000000000000000008152600401610c52906121bd565b60405180910390fd5b610c685f83836001611453565b610c7181611413565b15610cb1576040517f08c379a0000000000000000000000000000000000000000000000000000000008152600401610ca8906121bd565b60405180910390fd5b600160035f8473ffffffffffffffffffffffffffffffffffffffff1673ffffffffffffffffffffffffffffffffffffffff1681526020019081526020015f205f82825401925050819055508160025f8381526020019081526020015f205f6101000a81548173ffffffffffffffffffffffffffffffffffffffff021916908373ffffffffffffffffffffffffffffffffffffffff160217905550808273ffffffffffffffffffffffffffffffffffffffff165f73ffffffffffffffffffffffffffffffffffffffff167fddf252ad1be2c89b69c2b068fc378daa952ba7f163c4a11628f55a4df523b3ef60405160405180910390a4610db35f83836001611459565b5050565b5f80610dc283610700565b90508073ffffffffffffffffffffffffffffffffffffffff168473ffffffffffffffffffffffffffffffffffffffff161480610e045750610e0381856109a5565b5b80610e4257508373ffffffffffffffffffffffffffffffffffffffff16610e2a846104a0565b73ffffffffffffffffffffffffffffffffffffffff16145b91505092915050565b8273ffffffffffffffffffffffffffffffffffffffff16610e6b82610700565b73ffffffffffffffffffffffffffffffffffffffff1614610ec1576040517f08c379a0000000000000000000000000000000000000000000000000000000008152600401610eb89061224b565b60405180910390fd5b5f73ffffffffffffffffffffffffffffffffffffffff168273ffffffffffffffffffffffffffffffffffffffff1603610f2f576040517f08c379a0000000000000000000000000000000000000000000000000000000008152600401610f26906122d9565b60405180910390fd5b610f3c8383836001611453565b8273ffffffffffffffffffffffffffffffffffffffff16610f5c82610700565b73ffffffffffffffffffffffffffffffffffffffff1614610fb2576040517f08c379a0000000000000000000000000000000000000000000000000000000008152600401610fa99061224b565b60405180910390fd5b60045f8281526020019081526020015f205f6101000a81549073ffffffffffffffffffffffffffffffffffffffff0219169055600160035f8573ffffffffffffffffffffffffffffffffffffffff1673ffffffffffffffffffffffffffffffffffffffff1681526020019081526020015f205f8282540392505081905550600160035f8473ffffffffffffffffffffffffffffffffffffffff1673ffffffffffffffffffffffffffffffffffffffff1681526020019081526020015f205f82825401925050819055508160025f8381526020019081526020015f205f6101000a81548173ffffffffffffffffffffffffffffffffffffffff021916908373ffffffffffffffffffffffffffffffffffffffff160217905550808273ffffffffffffffffffffffffffffffffffffffff168473ffffffffffffffffffffffffffffffffffffffff167fddf252ad1be2c89b69c2b068fc378daa952ba7f163c4a11628f55a4df523b3ef60405160405180910390a46111328383836001611459565b505050565b5f60025f8381526020019081526020015f205f9054906101000a900473ffffffffffffffffffffffffffffffffffffffff169050919050565b8173ffffffffffffffffffffffffffffffffffffffff168373ffffffffffffffffffffffffffffffffffffffff16036111de576040517f08c379a00000000000000000000000000000000000000000000000000000000081526004016111d590612341565b60405180910390fd5b8060055f8573ffffffffffffffffffffffffffffffffffffffff1673ffffffffffffffffffffffffffffffffffffffff1681526020019081526020015f205f8473ffffffffffffffffffffffffffffffffffffffff1673ffffffffffffffffffffffffffffffffffffffff1681526020019081526020015f205f6101000a81548160ff0219169083151502179055508173ffffffffffffffffffffffffffffffffffffffff168373ffffffffffffffffffffffffffffffffffffffff167f17307eab39ab6107e8899845ad3d59bd9653f200f220920489ca2b5937696c31836040516112ca91906117ff565b60405180910390a3505050565b6112e2848484610e4b565b6112ee8484848461145f565b61132d576040517f08c379a0000000000000000000000000000000000000000000000000000000008152600401611324906123cf565b60405180910390fd5b50505050565b606060405180602001604052805f815250905090565b60605f6001611357846115e1565b0190505f8167ffffffffffffffff81111561137557611374611af3565b5b6040519080825280601f01601f1916602001820160405280156113a75781602001600182028036833780820191505090505b5090505f82602001820190505b600115611408578080600190039150507f3031323334353637383961626364656600000000000000000000000000000000600a86061a8153600a85816113fd576113fc6123ed565b5b0494505f85036113b4575b819350505050919050565b5f8073ffffffffffffffffffffffffffffffffffffffff1661143483611137565b73ffffffffffffffffffffffffffffffffffffffff1614159050919050565b50505050565b50505050565b5f61147f8473ffffffffffffffffffffffffffffffffffffffff16611732565b156115d4578373ffffffffffffffffffffffffffffffffffffffff1663150b7a026114a8610ae7565b8786866040518563ffffffff1660e01b81526004016114ca949392919061246c565b6020604051808303815f875af192505050801561150557506040513d601f19601f8201168201806040525081019061150291906124ca565b60015b611584573d805f8114611533576040519150601f19603f3d011682016040523d82523d5f602084013e611538565b606091505b505f81510361157c576040517f08c379a0000000000000000000000000000000000000000000000000000000008152600401611573906123cf565b60405180910390fd5b805181602001fd5b63150b7a0260e01b7bffffffffffffffffffffffffffffffffffffffffffffffffffffffff1916817bffffffffffffffffffffffffffffffffffffffffffffffffffffffff1916149150506115d9565b600190505b949350505050565b5f805f90507a184f03e93ff9f4daa797ed6e38ed64bf6a1f010000000000000000831061163d577a184f03e93ff9f4daa797ed6e38ed64bf6a1f0100000000000000008381611633576116326123ed565b5b0492506040810190505b6d04ee2d6d415b85acef8100000000831061167a576d04ee2d6d415b85acef810000000083816116705761166f6123ed565b5b0492506020810190505b662386f26fc1000083106116a957662386f26fc10000838161169f5761169e6123ed565b5b0492506010810190505b6305f5e10083106116d2576305f5e10083816116c8576116c76123ed565b5b0492506008810190505b61271083106116f75761271083816116ed576116ec6123ed565b5b0492506004810190505b6064831061171a57606483816117105761170f6123ed565b5b0492506002810190505b600a8310611729576001810190505b80915050919050565b5f808273ffffffffffffffffffffffffffffffffffffffff163b119050919050565b5f604051905090565b5f80fd5b5f80fd5b5f7fffffffff0000000000000000000000000000000000000000000000000000000082169050919050565b61179981611765565b81146117a3575f80fd5b50565b5f813590506117b481611790565b92915050565b5f602082840312156117cf576117ce61175d565b5b5f6117dc848285016117a6565b91505092915050565b5f8115159050919050565b6117f9816117e5565b82525050565b5f6020820190506118125f8301846117f0565b92915050565b5f81519050919050565b5f82825260208201905092915050565b5f5b8381101561184f578082015181840152602081019050611834565b5f8484015250505050565b5f601f19601f8301169050919050565b5f61187482611818565b61187e8185611822565b935061188e818560208601611832565b6118978161185a565b840191505092915050565b5f6020820190508181035f8301526118ba818461186a565b905092915050565b5f819050919050565b6118d4816118c2565b81146118de575f80fd5b50565b5f813590506118ef816118cb565b92915050565b5f6020828403121561190a5761190961175d565b5b5f611917848285016118e1565b91505092915050565b5f73ffffffffffffffffffffffffffffffffffffffff82169050919050565b5f61194982611920565b9050919050565b6119598161193f565b82525050565b5f6020820190506119725f830184611950565b92915050565b6119818161193f565b811461198b575f80fd5b50565b5f8135905061199c81611978565b92915050565b5f80604083850312156119b8576119b761175d565b5b5f6119c58582860161198e565b92505060206119d6858286016118e1565b9150509250929050565b6119e9816118c2565b82525050565b5f602082019050611a025f8301846119e0565b92915050565b5f805f60608486031215611a1f57611a1e61175d565b5b5f611a2c8682870161198e565b9350506020611a3d8682870161198e565b9250506040611a4e868287016118e1565b9150509250925092565b5f60208284031215611a6d57611a6c61175d565b5b5f611a7a8482850161198e565b91505092915050565b611a8c816117e5565b8114611a96575f80fd5b50565b5f81359050611aa781611a83565b92915050565b5f8060408385031215611ac357611ac261175d565b5b5f611ad08582860161198e565b9250506020611ae185828601611a99565b9150509250929050565b5f80fd5b5f80fd5b7f4e487b71000000000000000000000000000000000000000000000000000000005f52604160045260245ffd5b611b298261185a565b810181811067ffffffffffffffff82111715611b4857611b47611af3565b5b80604052505050565b5f611b5a611754565b9050611b668282611b20565b919050565b5f67ffffffffffffffff821115611b8557611b84611af3565b5b611b8e8261185a565b9050602081019050919050565b828183375f83830152505050565b5f611bbb611bb684611b6b565b611b51565b905082815260208101848484011115611bd757611bd6611aef565b5b611be2848285611b9b565b509392505050565b5f82601f830112611bfe57611bfd611aeb565b5b8135611c0e848260208601611ba9565b91505092915050565b5f805f8060808587031215611c2f57611c2e61175d565b5b5f611c3c8782880161198e565b9450506020611c4d8782880161198e565b9350506040611c5e878288016118e1565b925050606085013567ffffffffffffffff811115611c7f57611c7e611761565b5b611c8b87828801611bea565b91505092959194509250565b5f8060408385031215611cad57611cac61175d565b5b5f611cba8582860161198e565b9250506020611ccb8582860161198e565b9150509250929050565b7f4e487b71000000000000000000000000000000000000000000000000000000005f52602260045260245ffd5b5f6002820490506001821680611d1957607f821691505b602082108103611d2c57611d2b611cd5565b5b50919050565b7f4552433732313a20617070726f76616c20746f2063757272656e74206f776e655f8201527f7200000000000000000000000000000000000000000000000000000000000000602082015250565b5f611d8c602183611822565b9150611d9782611d32565b604082019050919050565b5f6020820190508181035f830152611db981611d80565b9050919050565b7f4552433732313a20617070726f76652063616c6c6572206973206e6f7420746f5f8201527f6b656e206f776e6572206f7220617070726f76656420666f7220616c6c000000602082015250565b5f611e1a603d83611822565b9150611e2582611dc0565b604082019050919050565b5f6020820190508181035f830152611e4781611e0e565b9050919050565b7f6d61782033204e465473000000000000000000000000000000000000000000005f82015250565b5f611e82600a83611822565b9150611e8d82611e4e565b602082019050919050565b5f6020820190508181035f830152611eaf81611e76565b9050919050565b7f4e487b71000000000000000000000000000000000000000000000000000000005f52601160045260245ffd5b5f611eed826118c2565b91507fffffffffffffffffffffffffffffffffffffffffffffffffffffffffffffffff8203611f1f57611f1e611eb6565b5b600182019050919050565b7f4552433732313a2063616c6c6572206973206e6f7420746f6b656e206f776e655f8201527f72206f7220617070726f76656400000000000000000000000000000000000000602082015250565b5f611f84602d83611822565b9150611f8f82611f2a565b604082019050919050565b5f6020820190508181035f830152611fb181611f78565b9050919050565b7f4552433732313a20696e76616c696420746f6b656e20494400000000000000005f82015250565b5f611fec601883611822565b9150611ff782611fb8565b602082019050919050565b5f6020820190508181035f83015261201981611fe0565b9050919050565b7f4552433732313a2061646472657373207a65726f206973206e6f7420612076615f8201527f6c6964206f776e65720000000000000000000000000000000000000000000000602082015250565b5f61207a602983611822565b915061208582612020565b604082019050919050565b5f6020820190508181035f8301526120a78161206e565b9050919050565b5f81905092915050565b5f6120c282611818565b6120cc81856120ae565b93506120dc818560208601611832565b80840191505092915050565b5f6120f382856120b8565b91506120ff82846120b8565b91508190509392505050565b7f4552433732313a206d696e7420746f20746865207a65726f20616464726573735f82015250565b5f61213f602083611822565b915061214a8261210b565b602082019050919050565b5f6020820190508181035f83015261216c81612133565b9050919050565b7f4552433732313a20746f6b656e20616c7265616479206d696e746564000000005f82015250565b5f6121a7601c83611822565b91506121b282612173565b602082019050919050565b5f6020820190508181035f8301526121d48161219b565b9050919050565b7f4552433732313a207472616e736665722066726f6d20696e636f7272656374205f8201527f6f776e6572000000000000000000000000000000000000000000000000000000602082015250565b5f612235602583611822565b9150612240826121db565b604082019050919050565b5f6020820190508181035f83015261226281612229565b9050919050565b7f4552433732313a207472616e7366657220746f20746865207a65726f206164645f8201527f7265737300000000000000000000000000000000000000000000000000000000602082015250565b5f6122c3602483611822565b91506122ce82612269565b604082019050919050565b5f6020820190508181035f8301526122f0816122b7565b9050919050565b7f4552433732313a20617070726f766520746f2063616c6c6572000000000000005f82015250565b5f61232b601983611822565b9150612336826122f7565b602082019050919050565b5f6020820190508181035f8301526123588161231f565b9050919050565b7f4552433732313a207472616e7366657220746f206e6f6e2045524337323152655f8201527f63656976657220696d706c656d656e7465720000000000000000000000000000602082015250565b5f6123b9603283611822565b91506123c48261235f565b604082019050919050565b5f6020820190508181035f8301526123e6816123ad565b9050919050565b7f4e487b71000000000000000000000000000000000000000000000000000000005f52601260045260245ffd5b5f81519050919050565b5f82825260208201905092915050565b5f61243e8261241a565b6124488185612424565b9350612458818560208601611832565b6124618161185a565b840191505092915050565b5f60808201905061247f5f830187611950565b61248c6020830186611950565b61249960408301856119e0565b81810360608301526124ab8184612434565b905095945050505050565b5f815190506124c481611790565b92915050565b5f602082840312156124df576124de61175d565b5b5f6124ec848285016124b6565b9150509291505056fea2646970667358221220287e141133c528e9fa3a2ff13cfa87196e5ca33ddfb9fb330b300c19bee1121964736f6c63430008150033",
			"opcodes": "PUSH1 0x80 PUSH1 0x40 MSTORE CALLVALUE DUP1 ISZERO PUSH3 0x10 JUMPI PUSH0 DUP1 REVERT JUMPDEST POP PUSH1 0x40 MLOAD DUP1 PUSH1 0x40 ADD PUSH1 0x40 MSTORE DUP1 PUSH1 0x9 DUP2 MSTORE PUSH1 0x20 ADD PUSH32 0x4F7665726D696E74320000000000000000000000000000000000000000000000 DUP2 MSTORE POP PUSH1 0x40 MLOAD DUP1 PUSH1 0x40 ADD PUSH1 0x40 MSTORE DUP1 PUSH1 0x2 DUP2 MSTORE PUSH1 0x20 ADD PUSH32 0x4154000000000000000000000000000000000000000000000000000000000000 DUP2 MSTORE POP DUP2 PUSH0 SWAP1 DUP2 PUSH3 0x8D SWAP2 SWAP1 PUSH3 0x30C JUMP JUMPDEST POP DUP1 PUSH1 0x1 SWAP1 DUP2 PUSH3 0x9F SWAP2 SWAP1 PUSH3 0x30C JUMP JUMPDEST POP POP POP PUSH3 0x3F0 JUMP JUMPDEST PUSH0 DUP2 MLOAD SWAP1 POP SWAP2 SWAP1 POP JUMP JUMPDEST PUSH32 0x4E487B7100000000000000000000000000000000000000000000000000000000 PUSH0 MSTORE PUSH1 0x41 PUSH1 0x4 MSTORE PUSH1 0x24 PUSH0 REVERT JUMPDEST PUSH32 0x4E487B7100000000000000000000000000000000000000000000000000000000 PUSH0 MSTORE PUSH1 0x22 PUSH1 0x4 MSTORE PUSH1 0x24 PUSH0 REVERT JUMPDEST PUSH0 PUSH1 0x2 DUP3 DIV SWAP1 POP PUSH1 0x1 DUP3 AND DUP1 PUSH3 0x124 JUMPI PUSH1 0x7F DUP3 AND SWAP2 POP JUMPDEST PUSH1 0x20 DUP3 LT DUP2 SUB PUSH3 0x13A JUMPI PUSH3 0x139 PUSH3 0xDF JUMP JUMPDEST JUMPDEST POP SWAP2 SWAP1 POP JUMP JUMPDEST PUSH0 DUP2 SWAP1 POP DUP2 PUSH0 MSTORE PUSH1 0x20 PUSH0 KECCAK256 SWAP1 POP SWAP2 SWAP1 POP JUMP JUMPDEST PUSH0 PUSH1 0x20 PUSH1 0x1F DUP4 ADD DIV SWAP1 POP SWAP2 SWAP1 POP JUMP JUMPDEST PUSH0 DUP3 DUP3 SHL SWAP1 POP SWAP3 SWAP2 POP POP JUMP JUMPDEST PUSH0 PUSH1 0x8 DUP4 MUL PUSH3 0x19E PUSH32 0xFFFFFFFFFFFFFFFFFFFFFFFFFFFFFFFFFFFFFFFFFFFFFFFFFFFFFFFFFFFFFFFF DUP3 PUSH3 0x161 JUMP JUMPDEST PUSH3 0x1AA DUP7 DUP4 PUSH3 0x161 JUMP JUMPDEST SWAP6 POP DUP1 NOT DUP5 AND SWAP4 POP DUP1 DUP7 AND DUP5 OR SWAP3 POP POP POP SWAP4 SWAP3 POP POP POP JUMP JUMPDEST PUSH0 DUP2 SWAP1 POP SWAP2 SWAP1 POP JUMP JUMPDEST PUSH0 DUP2 SWAP1 POP SWAP2 SWAP1 POP JUMP JUMPDEST PUSH0 PUSH3 0x1F4 PUSH3 0x1EE PUSH3 0x1E8 DUP5 PUSH3 0x1C2 JUMP JUMPDEST PUSH3 0x1CB JUMP JUMPDEST PUSH3 0x1C2 JUMP JUMPDEST SWAP1 POP SWAP2 SWAP1 POP JUMP JUMPDEST PUSH0 DUP2 SWAP1 POP SWAP2 SWAP1 POP JUMP JUMPDEST PUSH3 0x20F DUP4 PUSH3 0x1D4 JUMP JUMPDEST PUSH3 0x227 PUSH3 0x21E DUP3 PUSH3 0x1FB JUMP JUMPDEST DUP5 DUP5 SLOAD PUSH3 0x16D JUMP JUMPDEST DUP3 SSTORE POP POP POP POP JUMP JUMPDEST PUSH0 SWAP1 JUMP JUMPDEST PUSH3 0x23D PUSH3 0x22F JUMP JUMPDEST PUSH3 0x24A DUP2 DUP5 DUP5 PUSH3 0x204 JUMP JUMPDEST POP POP POP JUMP JUMPDEST JUMPDEST DUP2 DUP2 LT ISZERO PUSH3 0x271 JUMPI PUSH3 0x265 PUSH0 DUP3 PUSH3 0x233 JUMP JUMPDEST PUSH1 0x1 DUP2 ADD SWAP1 POP PUSH3 0x250 JUMP JUMPDEST POP POP JUMP JUMPDEST PUSH1 0x1F DUP3 GT ISZERO PUSH3 0x2C0 JUMPI PUSH3 0x28A DUP2 PUSH3 0x140 JUMP JUMPDEST PUSH3 0x295 DUP5 PUSH3 0x152 JUMP JUMPDEST DUP2 ADD PUSH1 0x20 DUP6 LT ISZERO PUSH3 0x2A5 JUMPI DUP2 SWAP1 POP JUMPDEST PUSH3 0x2BD PUSH3 0x2B4 DUP6 PUSH3 0x152 JUMP JUMPDEST DUP4 ADD DUP3 PUSH3 0x24F JUMP JUMPDEST POP POP JUMPDEST POP POP POP JUMP JUMPDEST PUSH0 DUP3 DUP3 SHR SWAP1 POP SWAP3 SWAP2 POP POP JUMP JUMPDEST PUSH0 PUSH3 0x2E2 PUSH0 NOT DUP5 PUSH1 0x8 MUL PUSH3 0x2C5 JUMP JUMPDEST NOT DUP1 DUP4 AND SWAP2 POP POP SWAP3 SWAP2 POP POP JUMP JUMPDEST PUSH0 PUSH3 0x2FC DUP4 DUP4 PUSH3 0x2D1 JUMP JUMPDEST SWAP2 POP DUP3 PUSH1 0x2 MUL DUP3 OR SWAP1 POP SWAP3 SWAP2 POP POP JUMP JUMPDEST PUSH3 0x317 DUP3 PUSH3 0xA8 JUMP JUMPDEST PUSH8 0xFFFFFFFFFFFFFFFF DUP2 GT ISZERO PUSH3 0x333 JUMPI PUSH3 0x332 PUSH3 0xB2 JUMP JUMPDEST JUMPDEST PUSH3 0x33F DUP3 SLOAD PUSH3 0x10C JUMP JUMPDEST PUSH3 0x34C DUP3 DUP3 DUP6 PUSH3 0x275 JUMP JUMPDEST PUSH0 PUSH1 0x20 SWAP1 POP PUSH1 0x1F DUP4 GT PUSH1 0x1 DUP2 EQ PUSH3 0x382 JUMPI PUSH0 DUP5 ISZERO PUSH3 0x36D JUMPI DUP3 DUP8 ADD MLOAD SWAP1 POP JUMPDEST PUSH3 0x379 DUP6 DUP3 PUSH3 0x2EF JUMP JUMPDEST DUP7 SSTORE POP PUSH3 0x3E8 JUMP JUMPDEST PUSH1 0x1F NOT DUP5 AND PUSH3 0x392 DUP7 PUSH3 0x140 JUMP JUMPDEST PUSH0 JUMPDEST DUP3 DUP2 LT ISZERO PUSH3 0x3BB JUMPI DUP5 DUP10 ADD MLOAD DUP3 SSTORE PUSH1 0x1 DUP3 ADD SWAP2 POP PUSH1 0x20 DUP6 ADD SWAP5 POP PUSH1 0x20 DUP2 ADD SWAP1 POP PUSH3 0x394 JUMP JUMPDEST DUP7 DUP4 LT ISZERO PUSH3 0x3DB JUMPI DUP5 DUP10 ADD MLOAD PUSH3 0x3D7 PUSH1 0x1F DUP10 AND DUP3 PUSH3 0x2D1 JUMP JUMPDEST DUP4 SSTORE POP JUMPDEST PUSH1 0x1 PUSH1 0x2 DUP9 MUL ADD DUP9 SSTORE POP POP POP JUMPDEST POP POP POP POP POP POP JUMP JUMPDEST PUSH2 0x252B DUP1 PUSH3 0x3FE PUSH0 CODECOPY PUSH0 RETURN INVALID PUSH1 0x80 PUSH1 0x40 MSTORE CALLVALUE DUP1 ISZERO PUSH2 0xF JUMPI PUSH0 DUP1 REVERT JUMPDEST POP PUSH1 0x4 CALLDATASIZE LT PUSH2 0xFE JUMPI PUSH0 CALLDATALOAD PUSH1 0xE0 SHR DUP1 PUSH4 0x42842E0E GT PUSH2 0x95 JUMPI DUP1 PUSH4 0xA22CB465 GT PUSH2 0x64 JUMPI DUP1 PUSH4 0xA22CB465 EQ PUSH2 0x298 JUMPI DUP1 PUSH4 0xB88D4FDE EQ PUSH2 0x2B4 JUMPI DUP1 PUSH4 0xC87B56DD EQ PUSH2 0x2D0 JUMPI DUP1 PUSH4 0xE985E9C5 EQ PUSH2 0x300 JUMPI PUSH2 0xFE JUMP JUMPDEST DUP1 PUSH4 0x42842E0E EQ PUSH2 0x1FE JUMPI DUP1 PUSH4 0x6352211E EQ PUSH2 0x21A JUMPI DUP1 PUSH4 0x70A08231 EQ PUSH2 0x24A JUMPI DUP1 PUSH4 0x95D89B41 EQ PUSH2 0x27A JUMPI PUSH2 0xFE JUMP JUMPDEST DUP1 PUSH4 0xB93381B GT PUSH2 0xD1 JUMPI DUP1 PUSH4 0xB93381B EQ PUSH2 0x19C JUMPI DUP1 PUSH4 0x1249C58B EQ PUSH2 0x1BA JUMPI DUP1 PUSH4 0x18160DDD EQ PUSH2 0x1C4 JUMPI DUP1 PUSH4 0x23B872DD EQ PUSH2 0x1E2 JUMPI PUSH2 0xFE JUMP JUMPDEST DUP1 PUSH4 0x1FFC9A7 EQ PUSH2 0x102 JUMPI DUP1 PUSH4 0x6FDDE03 EQ PUSH2 0x132 JUMPI DUP1 PUSH4 0x81812FC EQ PUSH2 0x150 JUMPI DUP1 PUSH4 0x95EA7B3 EQ PUSH2 0x180 JUMPI JUMPDEST PUSH0 DUP1 REVERT JUMPDEST PUSH2 0x11C PUSH1 0x4 DUP1 CALLDATASIZE SUB DUP2 ADD SWAP1 PUSH2 0x117 SWAP2 SWAP1 PUSH2 0x17BA JUMP JUMPDEST PUSH2 0x330 JUMP JUMPDEST PUSH1 0x40 MLOAD PUSH2 0x129 SWAP2 SWAP1 PUSH2 0x17FF JUMP JUMPDEST PUSH1 0x40 MLOAD DUP1 SWAP2 SUB SWAP1 RETURN JUMPDEST PUSH2 0x13A PUSH2 0x411 JUMP JUMPDEST PUSH1 0x40 MLOAD PUSH2 0x147 SWAP2 SWAP1 PUSH2 0x18A2 JUMP JUMPDEST PUSH1 0x40 MLOAD DUP1 SWAP2 SUB SWAP1 RETURN JUMPDEST PUSH2 0x16A PUSH1 0x4 DUP1 CALLDATASIZE SUB DUP2 ADD SWAP1 PUSH2 0x165 SWAP2 SWAP1 PUSH2 0x18F5 JUMP JUMPDEST PUSH2 0x4A0 JUMP JUMPDEST PUSH1 0x40 MLOAD PUSH2 0x177 SWAP2 SWAP1 PUSH2 0x195F JUMP JUMPDEST PUSH1 0x40 MLOAD DUP1 SWAP2 SUB SWAP1 RETURN JUMPDEST PUSH2 0x19A PUSH1 0x4 DUP1 CALLDATASIZE SUB DUP2 ADD SWAP1 PUSH2 0x195 SWAP2 SWAP1 PUSH2 0x19A2 JUMP JUMPDEST PUSH2 0x4E2 JUMP JUMPDEST STOP JUMPDEST PUSH2 0x1A4 PUSH2 0x5F8 JUMP JUMPDEST PUSH1 0x40 MLOAD PUSH2 0x1B1 SWAP2 SWAP1 PUSH2 0x17FF JUMP JUMPDEST PUSH1 0x40 MLOAD DUP1 SWAP2 SUB SWAP1 RETURN JUMPDEST PUSH2 0x1C2 PUSH2 0x60A JUMP JUMPDEST STOP JUMPDEST PUSH2 0x1CC PUSH2 0x67B JUMP JUMPDEST PUSH1 0x40 MLOAD PUSH2 0x1D9 SWAP2 SWAP1 PUSH2 0x19EF JUMP JUMPDEST PUSH1 0x40 MLOAD DUP1 SWAP2 SUB SWAP1 RETURN JUMPDEST PUSH2 0x1FC PUSH1 0x4 DUP1 CALLDATASIZE SUB DUP2 ADD SWAP1 PUSH2 0x1F7 SWAP2 SWAP1 PUSH2 0x1A08 JUMP JUMPDEST PUSH2 0x681 JUMP JUMPDEST STOP JUMPDEST PUSH2 0x218 PUSH1 0x4 DUP1 CALLDATASIZE SUB DUP2 ADD SWAP1 PUSH2 0x213 SWAP2 SWAP1 PUSH2 0x1A08 JUMP JUMPDEST PUSH2 0x6E1 JUMP JUMPDEST STOP JUMPDEST PUSH2 0x234 PUSH1 0x4 DUP1 CALLDATASIZE SUB DUP2 ADD SWAP1 PUSH2 0x22F SWAP2 SWAP1 PUSH2 0x18F5 JUMP JUMPDEST PUSH2 0x700 JUMP JUMPDEST PUSH1 0x40 MLOAD PUSH2 0x241 SWAP2 SWAP1 PUSH2 0x195F JUMP JUMPDEST PUSH1 0x40 MLOAD DUP1 SWAP2 SUB SWAP1 RETURN JUMPDEST PUSH2 0x264 PUSH1 0x4 DUP1 CALLDATASIZE SUB DUP2 ADD SWAP1 PUSH2 0x25F SWAP2 SWAP1 PUSH2 0x1A58 JUMP JUMPDEST PUSH2 0x784 JUMP JUMPDEST PUSH1 0x40 MLOAD PUSH2 0x271 SWAP2 SWAP1 PUSH2 0x19EF JUMP JUMPDEST PUSH1 0x40 MLOAD DUP1 SWAP2 SUB SWAP1 RETURN JUMPDEST PUSH2 0x282 PUSH2 0x838 JUMP JUMPDEST PUSH1 0x40 MLOAD PUSH2 0x28F SWAP2 SWAP1 PUSH2 0x18A2 JUMP JUMPDEST PUSH1 0x40 MLOAD DUP1 SWAP2 SUB SWAP1 RETURN JUMPDEST PUSH2 0x2B2 PUSH1 0x4 DUP1 CALLDATASIZE SUB DUP2 ADD SWAP1 PUSH2 0x2AD SWAP2 SWAP1 PUSH2 0x1AAD JUMP JUMPDEST PUSH2 0x8C8 JUMP JUMPDEST STOP JUMPDEST PUSH2 0x2CE PUSH1 0x4 DUP1 CALLDATASIZE SUB DUP2 ADD SWAP1 PUSH2 0x2C9 SWAP2 SWAP1 PUSH2 0x1C17 JUMP JUMPDEST PUSH2 0x8DE JUMP JUMPDEST STOP JUMPDEST PUSH2 0x2EA PUSH1 0x4 DUP1 CALLDATASIZE SUB DUP2 ADD SWAP1 PUSH2 0x2E5 SWAP2 SWAP1 PUSH2 0x18F5 JUMP JUMPDEST PUSH2 0x940 JUMP JUMPDEST PUSH1 0x40 MLOAD PUSH2 0x2F7 SWAP2 SWAP1 PUSH2 0x18A2 JUMP JUMPDEST PUSH1 0x40 MLOAD DUP1 SWAP2 SUB SWAP1 RETURN JUMPDEST PUSH2 0x31A PUSH1 0x4 DUP1 CALLDATASIZE SUB DUP2 ADD SWAP1 PUSH2 0x315 SWAP2 SWAP1 PUSH2 0x1C97 JUMP JUMPDEST PUSH2 0x9A5 JUMP JUMPDEST PUSH1 0x40 MLOAD PUSH2 0x327 SWAP2 SWAP1 PUSH2 0x17FF JUMP JUMPDEST PUSH1 0x40 MLOAD DUP1 SWAP2 SUB SWAP1 RETURN JUMPDEST PUSH0 PUSH32 0x80AC58CD00000000000000000000000000000000000000000000000000000000 PUSH28 0xFFFFFFFFFFFFFFFFFFFFFFFFFFFFFFFFFFFFFFFFFFFFFFFFFFFFFFFF NOT AND DUP3 PUSH28 0xFFFFFFFFFFFFFFFFFFFFFFFFFFFFFFFFFFFFFFFFFFFFFFFFFFFFFFFF NOT AND EQ DUP1 PUSH2 0x3FA JUMPI POP PUSH32 0x5B5E139F00000000000000000000000000000000000000000000000000000000 PUSH28 0xFFFFFFFFFFFFFFFFFFFFFFFFFFFFFFFFFFFFFFFFFFFFFFFFFFFFFFFF NOT AND DUP3 PUSH28 0xFFFFFFFFFFFFFFFFFFFFFFFFFFFFFFFFFFFFFFFFFFFFFFFFFFFFFFFF NOT AND EQ JUMPDEST DUP1 PUSH2 0x40A JUMPI POP PUSH2 0x409 DUP3 PUSH2 0xA33 JUMP JUMPDEST JUMPDEST SWAP1 POP SWAP2 SWAP1 POP JUMP JUMPDEST PUSH1 0x60 PUSH0 DUP1 SLOAD PUSH2 0x41F SWAP1 PUSH2 0x1D02 JUMP JUMPDEST DUP1 PUSH1 0x1F ADD PUSH1 0x20 DUP1 SWAP2 DIV MUL PUSH1 0x20 ADD PUSH1 0x40 MLOAD SWAP1 DUP2 ADD PUSH1 0x40 MSTORE DUP1 SWAP3 SWAP2 SWAP1 DUP2 DUP2 MSTORE PUSH1 0x20 ADD DUP3 DUP1 SLOAD PUSH2 0x44B SWAP1 PUSH2 0x1D02 JUMP JUMPDEST DUP1 ISZERO PUSH2 0x496 JUMPI DUP1 PUSH1 0x1F LT PUSH2 0x46D JUMPI PUSH2 0x100 DUP1 DUP4 SLOAD DIV MUL DUP4 MSTORE SWAP2 PUSH1 0x20 ADD SWAP2 PUSH2 0x496 JUMP JUMPDEST DUP3 ADD SWAP2 SWAP1 PUSH0 MSTORE PUSH1 0x20 PUSH0 KECCAK256 SWAP1 JUMPDEST DUP2 SLOAD DUP2 MSTORE SWAP1 PUSH1 0x1 ADD SWAP1 PUSH1 0x20 ADD DUP1 DUP4 GT PUSH2 0x479 JUMPI DUP3 SWAP1 SUB PUSH1 0x1F AND DUP3 ADD SWAP2 JUMPDEST POP POP POP POP POP SWAP1 POP SWAP1 JUMP JUMPDEST PUSH0 PUSH2 0x4AA DUP3 PUSH2 0xA9C JUMP JUMPDEST PUSH1 0x4 PUSH0 DUP4 DUP2 MSTORE PUSH1 0x20 ADD SWAP1 DUP2 MSTORE PUSH1 0x20 ADD PUSH0 KECCAK256 PUSH0 SWAP1 SLOAD SWAP1 PUSH2 0x100 EXP SWAP1 DIV PUSH20 0xFFFFFFFFFFFFFFFFFFFFFFFFFFFFFFFFFFFFFFFF AND SWAP1 POP SWAP2 SWAP1 POP JUMP JUMPDEST PUSH0 PUSH2 0x4EC DUP3 PUSH2 0x700 JUMP JUMPDEST SWAP1 POP DUP1 PUSH20 0xFFFFFFFFFFFFFFFFFFFFFFFFFFFFFFFFFFFFFFFF AND DUP4 PUSH20 0xFFFFFFFFFFFFFFFFFFFFFFFFFFFFFFFFFFFFFFFF AND SUB PUSH2 0x55C JUMPI PUSH1 0x40 MLOAD PUSH32 0x8C379A000000000000000000000000000000000000000000000000000000000 DUP2 MSTORE PUSH1 0x4 ADD PUSH2 0x553 SWAP1 PUSH2 0x1DA2 JUMP JUMPDEST PUSH1 0x40 MLOAD DUP1 SWAP2 SUB SWAP1 REVERT JUMPDEST DUP1 PUSH20 0xFFFFFFFFFFFFFFFFFFFFFFFFFFFFFFFFFFFFFFFF AND PUSH2 0x57B PUSH2 0xAE7 JUMP JUMPDEST PUSH20 0xFFFFFFFFFFFFFFFFFFFFFFFFFFFFFFFFFFFFFFFF AND EQ DUP1 PUSH2 0x5AA JUMPI POP PUSH2 0x5A9 DUP2 PUSH2 0x5A4 PUSH2 0xAE7 JUMP JUMPDEST PUSH2 0x9A5 JUMP JUMPDEST JUMPDEST PUSH2 0x5E9 JUMPI PUSH1 0x40 MLOAD PUSH32 0x8C379A000000000000000000000000000000000000000000000000000000000 DUP2 MSTORE PUSH1 0x4 ADD PUSH2 0x5E0 SWAP1 PUSH2 0x1E30 JUMP JUMPDEST PUSH1 0x40 MLOAD DUP1 SWAP2 SUB SWAP1 REVERT JUMPDEST PUSH2 0x5F3 DUP4 DUP4 PUSH2 0xAEE JUMP JUMPDEST POP POP POP JUMP JUMPDEST PUSH0 PUSH1 0x5 PUSH2 0x604 CALLER PUSH2 0x784 JUMP JUMPDEST EQ SWAP1 POP SWAP1 JUMP JUMPDEST PUSH1 0x3 PUSH2 0x615 CALLER PUSH2 0x784 JUMP JUMPDEST GT ISZERO PUSH2 0x656 JUMPI PUSH1 0x40 MLOAD PUSH32 0x8C379A000000000000000000000000000000000000000000000000000000000 DUP2 MSTORE PUSH1 0x4 ADD PUSH2 0x64D SWAP1 PUSH2 0x1E98 JUMP JUMPDEST PUSH1 0x40 MLOAD DUP1 SWAP2 SUB SWAP1 REVERT JUMPDEST PUSH1 0x6 PUSH0 DUP2 SLOAD DUP1 SWAP3 SWAP2 SWAP1 PUSH2 0x668 SWAP1 PUSH2 0x1EE3 JUMP JUMPDEST SWAP2 SWAP1 POP SSTORE POP PUSH2 0x679 CALLER PUSH1 0x6 SLOAD PUSH2 0xBA4 JUMP JUMPDEST JUMP JUMPDEST PUSH1 0x6 SLOAD DUP2 JUMP JUMPDEST PUSH2 0x692 PUSH2 0x68C PUSH2 0xAE7 JUMP JUMPDEST DUP3 PUSH2 0xDB7 JUMP JUMPDEST PUSH2 0x6D1 JUMPI PUSH1 0x40 MLOAD PUSH32 0x8C379A000000000000000000000000000000000000000000000000000000000 DUP2 MSTORE PUSH1 0x4 ADD PUSH2 0x6C8 SWAP1 PUSH2 0x1F9A JUMP JUMPDEST PUSH1 0x40 MLOAD DUP1 SWAP2 SUB SWAP1 REVERT JUMPDEST PUSH2 0x6DC DUP4 DUP4 DUP4 PUSH2 0xE4B JUMP JUMPDEST POP POP POP JUMP JUMPDEST PUSH2 0x6FB DUP4 DUP4 DUP4 PUSH1 0x40 MLOAD DUP1 PUSH1 0x20 ADD PUSH1 0x40 MSTORE DUP1 PUSH0 DUP2 MSTORE POP PUSH2 0x8DE JUMP JUMPDEST POP POP POP JUMP JUMPDEST PUSH0 DUP1 PUSH2 0x70B DUP4 PUSH2 0x1137 JUMP JUMPDEST SWAP1 POP PUSH0 PUSH20 0xFFFFFFFFFFFFFFFFFFFFFFFFFFFFFFFFFFFFFFFF AND DUP2 PUSH20 0xFFFFFFFFFFFFFFFFFFFFFFFFFFFFFFFFFFFFFFFF AND SUB PUSH2 0x77B JUMPI PUSH1 0x40 MLOAD PUSH32 0x8C379A000000000000000000000000000000000000000000000000000000000 DUP2 MSTORE PUSH1 0x4 ADD PUSH2 0x772 SWAP1 PUSH2 0x2002 JUMP JUMPDEST PUSH1 0x40 MLOAD DUP1 SWAP2 SUB SWAP1 REVERT JUMPDEST DUP1 SWAP2 POP POP SWAP2 SWAP1 POP JUMP JUMPDEST PUSH0 DUP1 PUSH20 0xFFFFFFFFFFFFFFFFFFFFFFFFFFFFFFFFFFFFFFFF AND DUP3 PUSH20 0xFFFFFFFFFFFFFFFFFFFFFFFFFFFFFFFFFFFFFFFF AND SUB PUSH2 0x7F3 JUMPI PUSH1 0x40 MLOAD PUSH32 0x8C379A000000000000000000000000000000000000000000000000000000000 DUP2 MSTORE PUSH1 0x4 ADD PUSH2 0x7EA SWAP1 PUSH2 0x2090 JUMP JUMPDEST PUSH1 0x40 MLOAD DUP1 SWAP2 SUB SWAP1 REVERT JUMPDEST PUSH1 0x3 PUSH0 DUP4 PUSH20 0xFFFFFFFFFFFFFFFFFFFFFFFFFFFFFFFFFFFFFFFF AND PUSH20 0xFFFFFFFFFFFFFFFFFFFFFFFFFFFFFFFFFFFFFFFF AND DUP2 MSTORE PUSH1 0x20 ADD SWAP1 DUP2 MSTORE PUSH1 0x20 ADD PUSH0 KECCAK256 SLOAD SWAP1 POP SWAP2 SWAP1 POP JUMP JUMPDEST PUSH1 0x60 PUSH1 0x1 DUP1 SLOAD PUSH2 0x847 SWAP1 PUSH2 0x1D02 JUMP JUMPDEST DUP1 PUSH1 0x1F ADD PUSH1 0x20 DUP1 SWAP2 DIV MUL PUSH1 0x20 ADD PUSH1 0x40 MLOAD SWAP1 DUP2 ADD PUSH1 0x40 MSTORE DUP1 SWAP3 SWAP2 SWAP1 DUP2 DUP2 MSTORE PUSH1 0x20 ADD DUP3 DUP1 SLOAD PUSH2 0x873 SWAP1 PUSH2 0x1D02 JUMP JUMPDEST DUP1 ISZERO PUSH2 0x8BE JUMPI DUP1 PUSH1 0x1F LT PUSH2 0x895 JUMPI PUSH2 0x100 DUP1 DUP4 SLOAD DIV MUL DUP4 MSTORE SWAP2 PUSH1 0x20 ADD SWAP2 PUSH2 0x8BE JUMP JUMPDEST DUP3 ADD SWAP2 SWAP1 PUSH0 MSTORE PUSH1 0x20 PUSH0 KECCAK256 SWAP1 JUMPDEST DUP2 SLOAD DUP2 MSTORE SWAP1 PUSH1 0x1 ADD SWAP1 PUSH1 0x20 ADD DUP1 DUP4 GT PUSH2 0x8A1 JUMPI DUP3 SWAP1 SUB PUSH1 0x1F AND DUP3 ADD SWAP2 JUMPDEST POP POP POP POP POP SWAP1 POP SWAP1 JUMP JUMPDEST PUSH2 0x8DA PUSH2 0x8D3 PUSH2 0xAE7 JUMP JUMPDEST DUP4 DUP4 PUSH2 0x1170 JUMP JUMPDEST POP POP JUMP JUMPDEST PUSH2 0x8EF PUSH2 0x8E9 PUSH2 0xAE7 JUMP JUMPDEST DUP4 PUSH2 0xDB7 JUMP JUMPDEST PUSH2 0x92E JUMPI PUSH1 0x40 MLOAD PUSH32 0x8C379A000000000000000000000000000000000000000000000000000000000 DUP2 MSTORE PUSH1 0x4 ADD PUSH2 0x925 SWAP1 PUSH2 0x1F9A JUMP JUMPDEST PUSH1 0x40 MLOAD DUP1 SWAP2 SUB SWAP1 REVERT JUMPDEST PUSH2 0x93A DUP5 DUP5 DUP5 DUP5 PUSH2 0x12D7 JUMP JUMPDEST POP POP POP POP JUMP JUMPDEST PUSH1 0x60 PUSH2 0x94B DUP3 PUSH2 0xA9C JUMP JUMPDEST PUSH0 PUSH2 0x954 PUSH2 0x1333 JUMP JUMPDEST SWAP1 POP PUSH0 DUP2 MLOAD GT PUSH2 0x972 JUMPI PUSH1 0x40 MLOAD DUP1 PUSH1 0x20 ADD PUSH1 0x40 MSTORE DUP1 PUSH0 DUP2 MSTORE POP PUSH2 0x99D JUMP JUMPDEST DUP1 PUSH2 0x97C DUP5 PUSH2 0x1349 JUMP JUMPDEST PUSH1 0x40 MLOAD PUSH1 0x20 ADD PUSH2 0x98D SWAP3 SWAP2 SWAP1 PUSH2 0x20E8 JUMP JUMPDEST PUSH1 0x40 MLOAD PUSH1 0x20 DUP2 DUP4 SUB SUB DUP2 MSTORE SWAP1 PUSH1 0x40 MSTORE JUMPDEST SWAP2 POP POP SWAP2 SWAP1 POP JUMP JUMPDEST PUSH0 PUSH1 0x5 PUSH0 DUP5 PUSH20 0xFFFFFFFFFFFFFFFFFFFFFFFFFFFFFFFFFFFFFFFF AND PUSH20 0xFFFFFFFFFFFFFFFFFFFFFFFFFFFFFFFFFFFFFFFF AND DUP2 MSTORE PUSH1 0x20 ADD SWAP1 DUP2 MSTORE PUSH1 0x20 ADD PUSH0 KECCAK256 PUSH0 DUP4 PUSH20 0xFFFFFFFFFFFFFFFFFFFFFFFFFFFFFFFFFFFFFFFF AND PUSH20 0xFFFFFFFFFFFFFFFFFFFFFFFFFFFFFFFFFFFFFFFF AND DUP2 MSTORE PUSH1 0x20 ADD SWAP1 DUP2 MSTORE PUSH1 0x20 ADD PUSH0 KECCAK256 PUSH0 SWAP1 SLOAD SWAP1 PUSH2 0x100 EXP SWAP1 DIV PUSH1 0xFF AND SWAP1 POP SWAP3 SWAP2 POP POP JUMP JUMPDEST PUSH0 PUSH32 0x1FFC9A700000000000000000000000000000000000000000000000000000000 PUSH28 0xFFFFFFFFFFFFFFFFFFFFFFFFFFFFFFFFFFFFFFFFFFFFFFFFFFFFFFFF NOT AND DUP3 PUSH28 0xFFFFFFFFFFFFFFFFFFFFFFFFFFFFFFFFFFFFFFFFFFFFFFFFFFFFFFFF NOT AND EQ SWAP1 POP SWAP2 SWAP1 POP JUMP JUMPDEST PUSH2 0xAA5 DUP2 PUSH2 0x1413 JUMP JUMPDEST PUSH2 0xAE4 JUMPI PUSH1 0x40 MLOAD PUSH32 0x8C379A000000000000000000000000000000000000000000000000000000000 DUP2 MSTORE PUSH1 0x4 ADD PUSH2 0xADB SWAP1 PUSH2 0x2002 JUMP JUMPDEST PUSH1 0x40 MLOAD DUP1 SWAP2 SUB SWAP1 REVERT JUMPDEST POP JUMP JUMPDEST PUSH0 CALLER SWAP1 POP SWAP1 JUMP JUMPDEST DUP2 PUSH1 0x4 PUSH0 DUP4 DUP2 MSTORE PUSH1 0x20 ADD SWAP1 DUP2 MSTORE PUSH1 0x20 ADD PUSH0 KECCAK256 PUSH0 PUSH2 0x100 EXP DUP2 SLOAD DUP2 PUSH20 0xFFFFFFFFFFFFFFFFFFFFFFFFFFFFFFFFFFFFFFFF MUL NOT AND SWAP1 DUP4 PUSH20 0xFFFFFFFFFFFFFFFFFFFFFFFFFFFFFFFFFFFFFFFF AND MUL OR SWAP1 SSTORE POP DUP1 DUP3 PUSH20 0xFFFFFFFFFFFFFFFFFFFFFFFFFFFFFFFFFFFFFFFF AND PUSH2 0xB5E DUP4 PUSH2 0x700 JUMP JUMPDEST PUSH20 0xFFFFFFFFFFFFFFFFFFFFFFFFFFFFFFFFFFFFFFFF AND PUSH32 0x8C5BE1E5EBEC7D5BD14F71427D1E84F3DD0314C0F7B2291E5B200AC8C7C3B925 PUSH1 0x40 MLOAD PUSH1 0x40 MLOAD DUP1 SWAP2 SUB SWAP1 LOG4 POP POP JUMP JUMPDEST PUSH0 PUSH20 0xFFFFFFFFFFFFFFFFFFFFFFFFFFFFFFFFFFFFFFFF AND DUP3 PUSH20 0xFFFFFFFFFFFFFFFFFFFFFFFFFFFFFFFFFFFFFFFF AND SUB PUSH2 0xC12 JUMPI PUSH1 0x40 MLOAD PUSH32 0x8C379A000000000000000000000000000000000000000000000000000000000 DUP2 MSTORE PUSH1 0x4 ADD PUSH2 0xC09 SWAP1 PUSH2 0x2155 JUMP JUMPDEST PUSH1 0x40 MLOAD DUP1 SWAP2 SUB SWAP1 REVERT JUMPDEST PUSH2 0xC1B DUP2 PUSH2 0x1413 JUMP JUMPDEST ISZERO PUSH2 0xC5B JUMPI PUSH1 0x40 MLOAD PUSH32 0x8C379A000000000000000000000000000000000000000000000000000000000 DUP2 MSTORE PUSH1 0x4 ADD PUSH2 0xC52 SWAP1 PUSH2 0x21BD JUMP JUMPDEST PUSH1 0x40 MLOAD DUP1 SWAP2 SUB SWAP1 REVERT JUMPDEST PUSH2 0xC68 PUSH0 DUP4 DUP4 PUSH1 0x1 PUSH2 0x1453 JUMP JUMPDEST PUSH2 0xC71 DUP2 PUSH2 0x1413 JUMP JUMPDEST ISZERO PUSH2 0xCB1 JUMPI PUSH1 0x40 MLOAD PUSH32 0x8C379A000000000000000000000000000000000000000000000000000000000 DUP2 MSTORE PUSH1 0x4 ADD PUSH2 0xCA8 SWAP1 PUSH2 0x21BD JUMP JUMPDEST PUSH1 0x40 MLOAD DUP1 SWAP2 SUB SWAP1 REVERT JUMPDEST PUSH1 0x1 PUSH1 0x3 PUSH0 DUP5 PUSH20 0xFFFFFFFFFFFFFFFFFFFFFFFFFFFFFFFFFFFFFFFF AND PUSH20 0xFFFFFFFFFFFFFFFFFFFFFFFFFFFFFFFFFFFFFFFF AND DUP2 MSTORE PUSH1 0x20 ADD SWAP1 DUP2 MSTORE PUSH1 0x20 ADD PUSH0 KECCAK256 PUSH0 DUP3 DUP3 SLOAD ADD SWAP3 POP POP DUP2 SWAP1 SSTORE POP DUP2 PUSH1 0x2 PUSH0 DUP4 DUP2 MSTORE PUSH1 0x20 ADD SWAP1 DUP2 MSTORE PUSH1 0x20 ADD PUSH0 KECCAK256 PUSH0 PUSH2 0x100 EXP DUP2 SLOAD DUP2 PUSH20 0xFFFFFFFFFFFFFFFFFFFFFFFFFFFFFFFFFFFFFFFF MUL NOT AND SWAP1 DUP4 PUSH20 0xFFFFFFFFFFFFFFFFFFFFFFFFFFFFFFFFFFFFFFFF AND MUL OR SWAP1 SSTORE POP DUP1 DUP3 PUSH20 0xFFFFFFFFFFFFFFFFFFFFFFFFFFFFFFFFFFFFFFFF AND PUSH0 PUSH20 0xFFFFFFFFFFFFFFFFFFFFFFFFFFFFFFFFFFFFFFFF AND PUSH32 0xDDF252AD1BE2C89B69C2B068FC378DAA952BA7F163C4A11628F55A4DF523B3EF PUSH1 0x40 MLOAD PUSH1 0x40 MLOAD DUP1 SWAP2 SUB SWAP1 LOG4 PUSH2 0xDB3 PUSH0 DUP4 DUP4 PUSH1 0x1 PUSH2 0x1459 JUMP JUMPDEST POP POP JUMP JUMPDEST PUSH0 DUP1 PUSH2 0xDC2 DUP4 PUSH2 0x700 JUMP JUMPDEST SWAP1 POP DUP1 PUSH20 0xFFFFFFFFFFFFFFFFFFFFFFFFFFFFFFFFFFFFFFFF AND DUP5 PUSH20 0xFFFFFFFFFFFFFFFFFFFFFFFFFFFFFFFFFFFFFFFF AND EQ DUP1 PUSH2 0xE04 JUMPI POP PUSH2 0xE03 DUP2 DUP6 PUSH2 0x9A5 JUMP JUMPDEST JUMPDEST DUP1 PUSH2 0xE42 JUMPI POP DUP4 PUSH20 0xFFFFFFFFFFFFFFFFFFFFFFFFFFFFFFFFFFFFFFFF AND PUSH2 0xE2A DUP5 PUSH2 0x4A0 JUMP JUMPDEST PUSH20 0xFFFFFFFFFFFFFFFFFFFFFFFFFFFFFFFFFFFFFFFF AND EQ JUMPDEST SWAP2 POP POP SWAP3 SWAP2 POP POP JUMP JUMPDEST DUP3 PUSH20 0xFFFFFFFFFFFFFFFFFFFFFFFFFFFFFFFFFFFFFFFF AND PUSH2 0xE6B DUP3 PUSH2 0x700 JUMP JUMPDEST PUSH20 0xFFFFFFFFFFFFFFFFFFFFFFFFFFFFFFFFFFFFFFFF AND EQ PUSH2 0xEC1 JUMPI PUSH1 0x40 MLOAD PUSH32 0x8C379A000000000000000000000000000000000000000000000000000000000 DUP2 MSTORE PUSH1 0x4 ADD PUSH2 0xEB8 SWAP1 PUSH2 0x224B JUMP JUMPDEST PUSH1 0x40 MLOAD DUP1 SWAP2 SUB SWAP1 REVERT JUMPDEST PUSH0 PUSH20 0xFFFFFFFFFFFFFFFFFFFFFFFFFFFFFFFFFFFFFFFF AND DUP3 PUSH20 0xFFFFFFFFFFFFFFFFFFFFFFFFFFFFFFFFFFFFFFFF AND SUB PUSH2 0xF2F JUMPI PUSH1 0x40 MLOAD PUSH32 0x8C379A000000000000000000000000000000000000000000000000000000000 DUP2 MSTORE PUSH1 0x4 ADD PUSH2 0xF26 SWAP1 PUSH2 0x22D9 JUMP JUMPDEST PUSH1 0x40 MLOAD DUP1 SWAP2 SUB SWAP1 REVERT JUMPDEST PUSH2 0xF3C DUP4 DUP4 DUP4 PUSH1 0x1 PUSH2 0x1453 JUMP JUMPDEST DUP3 PUSH20 0xFFFFFFFFFFFFFFFFFFFFFFFFFFFFFFFFFFFFFFFF AND PUSH2 0xF5C DUP3 PUSH2 0x700 JUMP JUMPDEST PUSH20 0xFFFFFFFFFFFFFFFFFFFFFFFFFFFFFFFFFFFFFFFF AND EQ PUSH2 0xFB2 JUMPI PUSH1 0x40 MLOAD PUSH32 0x8C379A000000000000000000000000000000000000000000000000000000000 DUP2 MSTORE PUSH1 0x4 ADD PUSH2 0xFA9 SWAP1 PUSH2 0x224B JUMP JUMPDEST PUSH1 0x40 MLOAD DUP1 SWAP2 SUB SWAP1 REVERT JUMPDEST PUSH1 0x4 PUSH0 DUP3 DUP2 MSTORE PUSH1 0x20 ADD SWAP1 DUP2 MSTORE PUSH1 0x20 ADD PUSH0 KECCAK256 PUSH0 PUSH2 0x100 EXP DUP2 SLOAD SWAP1 PUSH20 0xFFFFFFFFFFFFFFFFFFFFFFFFFFFFFFFFFFFFFFFF MUL NOT AND SWAP1 SSTORE PUSH1 0x1 PUSH1 0x3 PUSH0 DUP6 PUSH20 0xFFFFFFFFFFFFFFFFFFFFFFFFFFFFFFFFFFFFFFFF AND PUSH20 0xFFFFFFFFFFFFFFFFFFFFFFFFFFFFFFFFFFFFFFFF AND DUP2 MSTORE PUSH1 0x20 ADD SWAP1 DUP2 MSTORE PUSH1 0x20 ADD PUSH0 KECCAK256 PUSH0 DUP3 DUP3 SLOAD SUB SWAP3 POP POP DUP2 SWAP1 SSTORE POP PUSH1 0x1 PUSH1 0x3 PUSH0 DUP5 PUSH20 0xFFFFFFFFFFFFFFFFFFFFFFFFFFFFFFFFFFFFFFFF AND PUSH20 0xFFFFFFFFFFFFFFFFFFFFFFFFFFFFFFFFFFFFFFFF AND DUP2 MSTORE PUSH1 0x20 ADD SWAP1 DUP2 MSTORE PUSH1 0x20 ADD PUSH0 KECCAK256 PUSH0 DUP3 DUP3 SLOAD ADD SWAP3 POP POP DUP2 SWAP1 SSTORE POP DUP2 PUSH1 0x2 PUSH0 DUP4 DUP2 MSTORE PUSH1 0x20 ADD SWAP1 DUP2 MSTORE PUSH1 0x20 ADD PUSH0 KECCAK256 PUSH0 PUSH2 0x100 EXP DUP2 SLOAD DUP2 PUSH20 0xFFFFFFFFFFFFFFFFFFFFFFFFFFFFFFFFFFFFFFFF MUL NOT AND SWAP1 DUP4 PUSH20 0xFFFFFFFFFFFFFFFFFFFFFFFFFFFFFFFFFFFFFFFF AND MUL OR SWAP1 SSTORE POP DUP1 DUP3 PUSH20 0xFFFFFFFFFFFFFFFFFFFFFFFFFFFFFFFFFFFFFFFF AND DUP5 PUSH20 0xFFFFFFFFFFFFFFFFFFFFFFFFFFFFFFFFFFFFFFFF AND PUSH32 0xDDF252AD1BE2C89B69C2B068FC378DAA952BA7F163C4A11628F55A4DF523B3EF PUSH1 0x40 MLOAD PUSH1 0x40 MLOAD DUP1 SWAP2 SUB SWAP1 LOG4 PUSH2 0x1132 DUP4 DUP4 DUP4 PUSH1 0x1 PUSH2 0x1459 JUMP JUMPDEST POP POP POP JUMP JUMPDEST PUSH0 PUSH1 0x2 PUSH0 DUP4 DUP2 MSTORE PUSH1 0x20 ADD SWAP1 DUP2 MSTORE PUSH1 0x20 ADD PUSH0 KECCAK256 PUSH0 SWAP1 SLOAD SWAP1 PUSH2 0x100 EXP SWAP1 DIV PUSH20 0xFFFFFFFFFFFFFFFFFFFFFFFFFFFFFFFFFFFFFFFF AND SWAP1 POP SWAP2 SWAP1 POP JUMP JUMPDEST DUP2 PUSH20 0xFFFFFFFFFFFFFFFFFFFFFFFFFFFFFFFFFFFFFFFF AND DUP4 PUSH20 0xFFFFFFFFFFFFFFFFFFFFFFFFFFFFFFFFFFFFFFFF AND SUB PUSH2 0x11DE JUMPI PUSH1 0x40 MLOAD PUSH32 0x8C379A000000000000000000000000000000000000000000000000000000000 DUP2 MSTORE PUSH1 0x4 ADD PUSH2 0x11D5 SWAP1 PUSH2 0x2341 JUMP JUMPDEST PUSH1 0x40 MLOAD DUP1 SWAP2 SUB SWAP1 REVERT JUMPDEST DUP1 PUSH1 0x5 PUSH0 DUP6 PUSH20 0xFFFFFFFFFFFFFFFFFFFFFFFFFFFFFFFFFFFFFFFF AND PUSH20 0xFFFFFFFFFFFFFFFFFFFFFFFFFFFFFFFFFFFFFFFF AND DUP2 MSTORE PUSH1 0x20 ADD SWAP1 DUP2 MSTORE PUSH1 0x20 ADD PUSH0 KECCAK256 PUSH0 DUP5 PUSH20 0xFFFFFFFFFFFFFFFFFFFFFFFFFFFFFFFFFFFFFFFF AND PUSH20 0xFFFFFFFFFFFFFFFFFFFFFFFFFFFFFFFFFFFFFFFF AND DUP2 MSTORE PUSH1 0x20 ADD SWAP1 DUP2 MSTORE PUSH1 0x20 ADD PUSH0 KECCAK256 PUSH0 PUSH2 0x100 EXP DUP2 SLOAD DUP2 PUSH1 0xFF MUL NOT AND SWAP1 DUP4 ISZERO ISZERO MUL OR SWAP1 SSTORE POP DUP2 PUSH20 0xFFFFFFFFFFFFFFFFFFFFFFFFFFFFFFFFFFFFFFFF AND DUP4 PUSH20 0xFFFFFFFFFFFFFFFFFFFFFFFFFFFFFFFFFFFFFFFF AND PUSH32 0x17307EAB39AB6107E8899845AD3D59BD9653F200F220920489CA2B5937696C31 DUP4 PUSH1 0x40 MLOAD PUSH2 0x12CA SWAP2 SWAP1 PUSH2 0x17FF JUMP JUMPDEST PUSH1 0x40 MLOAD DUP1 SWAP2 SUB SWAP1 LOG3 POP POP POP JUMP JUMPDEST PUSH2 0x12E2 DUP5 DUP5 DUP5 PUSH2 0xE4B JUMP JUMPDEST PUSH2 0x12EE DUP5 DUP5 DUP5 DUP5 PUSH2 0x145F JUMP JUMPDEST PUSH2 0x132D JUMPI PUSH1 0x40 MLOAD PUSH32 0x8C379A000000000000000000000000000000000000000000000000000000000 DUP2 MSTORE PUSH1 0x4 ADD PUSH2 0x1324 SWAP1 PUSH2 0x23CF JUMP JUMPDEST PUSH1 0x40 MLOAD DUP1 SWAP2 SUB SWAP1 REVERT JUMPDEST POP POP POP POP JUMP JUMPDEST PUSH1 0x60 PUSH1 0x40 MLOAD DUP1 PUSH1 0x20 ADD PUSH1 0x40 MSTORE DUP1 PUSH0 DUP2 MSTORE POP SWAP1 POP SWAP1 JUMP JUMPDEST PUSH1 0x60 PUSH0 PUSH1 0x1 PUSH2 0x1357 DUP5 PUSH2 0x15E1 JUMP JUMPDEST ADD SWAP1 POP PUSH0 DUP2 PUSH8 0xFFFFFFFFFFFFFFFF DUP2 GT ISZERO PUSH2 0x1375 JUMPI PUSH2 0x1374 PUSH2 0x1AF3 JUMP JUMPDEST JUMPDEST PUSH1 0x40 MLOAD SWAP1 DUP1 DUP3 MSTORE DUP1 PUSH1 0x1F ADD PUSH1 0x1F NOT AND PUSH1 0x20 ADD DUP3 ADD PUSH1 0x40 MSTORE DUP1 ISZERO PUSH2 0x13A7 JUMPI DUP2 PUSH1 0x20 ADD PUSH1 0x1 DUP3 MUL DUP1 CALLDATASIZE DUP4 CALLDATACOPY DUP1 DUP3 ADD SWAP2 POP POP SWAP1 POP JUMPDEST POP SWAP1 POP PUSH0 DUP3 PUSH1 0x20 ADD DUP3 ADD SWAP1 POP JUMPDEST PUSH1 0x1 ISZERO PUSH2 0x1408 JUMPI DUP1 DUP1 PUSH1 0x1 SWAP1 SUB SWAP2 POP POP PUSH32 0x3031323334353637383961626364656600000000000000000000000000000000 PUSH1 0xA DUP7 MOD BYTE DUP2 MSTORE8 PUSH1 0xA DUP6 DUP2 PUSH2 0x13FD JUMPI PUSH2 0x13FC PUSH2 0x23ED JUMP JUMPDEST JUMPDEST DIV SWAP5 POP PUSH0 DUP6 SUB PUSH2 0x13B4 JUMPI JUMPDEST DUP2 SWAP4 POP POP POP POP SWAP2 SWAP1 POP JUMP JUMPDEST PUSH0 DUP1 PUSH20 0xFFFFFFFFFFFFFFFFFFFFFFFFFFFFFFFFFFFFFFFF AND PUSH2 0x1434 DUP4 PUSH2 0x1137 JUMP JUMPDEST PUSH20 0xFFFFFFFFFFFFFFFFFFFFFFFFFFFFFFFFFFFFFFFF AND EQ ISZERO SWAP1 POP SWAP2 SWAP1 POP JUMP JUMPDEST POP POP POP POP JUMP JUMPDEST POP POP POP POP JUMP JUMPDEST PUSH0 PUSH2 0x147F DUP5 PUSH20 0xFFFFFFFFFFFFFFFFFFFFFFFFFFFFFFFFFFFFFFFF AND PUSH2 0x1732 JUMP JUMPDEST ISZERO PUSH2 0x15D4 JUMPI DUP4 PUSH20 0xFFFFFFFFFFFFFFFFFFFFFFFFFFFFFFFFFFFFFFFF AND PUSH4 0x150B7A02 PUSH2 0x14A8 PUSH2 0xAE7 JUMP JUMPDEST DUP8 DUP7 DUP7 PUSH1 0x40 MLOAD DUP6 PUSH4 0xFFFFFFFF AND PUSH1 0xE0 SHL DUP2 MSTORE PUSH1 0x4 ADD PUSH2 0x14CA SWAP5 SWAP4 SWAP3 SWAP2 SWAP1 PUSH2 0x246C JUMP JUMPDEST PUSH1 0x20 PUSH1 0x40 MLOAD DUP1 DUP4 SUB DUP2 PUSH0 DUP8 GAS CALL SWAP3 POP POP POP DUP1 ISZERO PUSH2 0x1505 JUMPI POP PUSH1 0x40 MLOAD RETURNDATASIZE PUSH1 0x1F NOT PUSH1 0x1F DUP3 ADD AND DUP3 ADD DUP1 PUSH1 0x40 MSTORE POP DUP2 ADD SWAP1 PUSH2 0x1502 SWAP2 SWAP1 PUSH2 0x24CA JUMP JUMPDEST PUSH1 0x1 JUMPDEST PUSH2 0x1584 JUMPI RETURNDATASIZE DUP1 PUSH0 DUP2 EQ PUSH2 0x1533 JUMPI PUSH1 0x40 MLOAD SWAP2 POP PUSH1 0x1F NOT PUSH1 0x3F RETURNDATASIZE ADD AND DUP3 ADD PUSH1 0x40 MSTORE RETURNDATASIZE DUP3 MSTORE RETURNDATASIZE PUSH0 PUSH1 0x20 DUP5 ADD RETURNDATACOPY PUSH2 0x1538 JUMP JUMPDEST PUSH1 0x60 SWAP2 POP JUMPDEST POP PUSH0 DUP2 MLOAD SUB PUSH2 0x157C JUMPI PUSH1 0x40 MLOAD PUSH32 0x8C379A000000000000000000000000000000000000000000000000000000000 DUP2 MSTORE PUSH1 0x4 ADD PUSH2 0x1573 SWAP1 PUSH2 0x23CF JUMP JUMPDEST PUSH1 0x40 MLOAD DUP1 SWAP2 SUB SWAP1 REVERT JUMPDEST DUP1 MLOAD DUP2 PUSH1 0x20 ADD REVERT JUMPDEST PUSH4 0x150B7A02 PUSH1 0xE0 SHL PUSH28 0xFFFFFFFFFFFFFFFFFFFFFFFFFFFFFFFFFFFFFFFFFFFFFFFFFFFFFFFF NOT AND DUP2 PUSH28 0xFFFFFFFFFFFFFFFFFFFFFFFFFFFFFFFFFFFFFFFFFFFFFFFFFFFFFFFF NOT AND EQ SWAP2 POP POP PUSH2 0x15D9 JUMP JUMPDEST PUSH1 0x1 SWAP1 POP JUMPDEST SWAP5 SWAP4 POP POP POP POP JUMP JUMPDEST PUSH0 DUP1 PUSH0 SWAP1 POP PUSH27 0x184F03E93FF9F4DAA797ED6E38ED64BF6A1F010000000000000000 DUP4 LT PUSH2 0x163D JUMPI PUSH27 0x184F03E93FF9F4DAA797ED6E38ED64BF6A1F010000000000000000 DUP4 DUP2 PUSH2 0x1633 JUMPI PUSH2 0x1632 PUSH2 0x23ED JUMP JUMPDEST JUMPDEST DIV SWAP3 POP PUSH1 0x40 DUP2 ADD SWAP1 POP JUMPDEST PUSH14 0x4EE2D6D415B85ACEF8100000000 DUP4 LT PUSH2 0x167A JUMPI PUSH14 0x4EE2D6D415B85ACEF8100000000 DUP4 DUP2 PUSH2 0x1670 JUMPI PUSH2 0x166F PUSH2 0x23ED JUMP JUMPDEST JUMPDEST DIV SWAP3 POP PUSH1 0x20 DUP2 ADD SWAP1 POP JUMPDEST PUSH7 0x2386F26FC10000 DUP4 LT PUSH2 0x16A9 JUMPI PUSH7 0x2386F26FC10000 DUP4 DUP2 PUSH2 0x169F JUMPI PUSH2 0x169E PUSH2 0x23ED JUMP JUMPDEST JUMPDEST DIV SWAP3 POP PUSH1 0x10 DUP2 ADD SWAP1 POP JUMPDEST PUSH4 0x5F5E100 DUP4 LT PUSH2 0x16D2 JUMPI PUSH4 0x5F5E100 DUP4 DUP2 PUSH2 0x16C8 JUMPI PUSH2 0x16C7 PUSH2 0x23ED JUMP JUMPDEST JUMPDEST DIV SWAP3 POP PUSH1 0x8 DUP2 ADD SWAP1 POP JUMPDEST PUSH2 0x2710 DUP4 LT PUSH2 0x16F7 JUMPI PUSH2 0x2710 DUP4 DUP2 PUSH2 0x16ED JUMPI PUSH2 0x16EC PUSH2 0x23ED JUMP JUMPDEST JUMPDEST DIV SWAP3 POP PUSH1 0x4 DUP2 ADD SWAP1 POP JUMPDEST PUSH1 0x64 DUP4 LT PUSH2 0x171A JUMPI PUSH1 0x64 DUP4 DUP2 PUSH2 0x1710 JUMPI PUSH2 0x170F PUSH2 0x23ED JUMP JUMPDEST JUMPDEST DIV SWAP3 POP PUSH1 0x2 DUP2 ADD SWAP1 POP JUMPDEST PUSH1 0xA DUP4 LT PUSH2 0x1729 JUMPI PUSH1 0x1 DUP2 ADD SWAP1 POP JUMPDEST DUP1 SWAP2 POP POP SWAP2 SWAP1 POP JUMP JUMPDEST PUSH0 DUP1 DUP3 PUSH20 0xFFFFFFFFFFFFFFFFFFFFFFFFFFFFFFFFFFFFFFFF AND EXTCODESIZE GT SWAP1 POP SWAP2 SWAP1 POP JUMP JUMPDEST PUSH0 PUSH1 0x40 MLOAD SWAP1 POP SWAP1 JUMP JUMPDEST PUSH0 DUP1 REVERT JUMPDEST PUSH0 DUP1 REVERT JUMPDEST PUSH0 PUSH32 0xFFFFFFFF00000000000000000000000000000000000000000000000000000000 DUP3 AND SWAP1 POP SWAP2 SWAP1 POP JUMP JUMPDEST PUSH2 0x1799 DUP2 PUSH2 0x1765 JUMP JUMPDEST DUP2 EQ PUSH2 0x17A3 JUMPI PUSH0 DUP1 REVERT JUMPDEST POP JUMP JUMPDEST PUSH0 DUP2 CALLDATALOAD SWAP1 POP PUSH2 0x17B4 DUP2 PUSH2 0x1790 JUMP JUMPDEST SWAP3 SWAP2 POP POP JUMP JUMPDEST PUSH0 PUSH1 0x20 DUP3 DUP5 SUB SLT ISZERO PUSH2 0x17CF JUMPI PUSH2 0x17CE PUSH2 0x175D JUMP JUMPDEST JUMPDEST PUSH0 PUSH2 0x17DC DUP5 DUP3 DUP6 ADD PUSH2 0x17A6 JUMP JUMPDEST SWAP2 POP POP SWAP3 SWAP2 POP POP JUMP JUMPDEST PUSH0 DUP2 ISZERO ISZERO SWAP1 POP SWAP2 SWAP1 POP JUMP JUMPDEST PUSH2 0x17F9 DUP2 PUSH2 0x17E5 JUMP JUMPDEST DUP3 MSTORE POP POP JUMP JUMPDEST PUSH0 PUSH1 0x20 DUP3 ADD SWAP1 POP PUSH2 0x1812 PUSH0 DUP4 ADD DUP5 PUSH2 0x17F0 JUMP JUMPDEST SWAP3 SWAP2 POP POP JUMP JUMPDEST PUSH0 DUP2 MLOAD SWAP1 POP SWAP2 SWAP1 POP JUMP JUMPDEST PUSH0 DUP3 DUP3 MSTORE PUSH1 0x20 DUP3 ADD SWAP1 POP SWAP3 SWAP2 POP POP JUMP JUMPDEST PUSH0 JUMPDEST DUP4 DUP2 LT ISZERO PUSH2 0x184F JUMPI DUP1 DUP3 ADD MLOAD DUP2 DUP5 ADD MSTORE PUSH1 0x20 DUP2 ADD SWAP1 POP PUSH2 0x1834 JUMP JUMPDEST PUSH0 DUP5 DUP5 ADD MSTORE POP POP POP POP JUMP JUMPDEST PUSH0 PUSH1 0x1F NOT PUSH1 0x1F DUP4 ADD AND SWAP1 POP SWAP2 SWAP1 POP JUMP JUMPDEST PUSH0 PUSH2 0x1874 DUP3 PUSH2 0x1818 JUMP JUMPDEST PUSH2 0x187E DUP2 DUP6 PUSH2 0x1822 JUMP JUMPDEST SWAP4 POP PUSH2 0x188E DUP2 DUP6 PUSH1 0x20 DUP7 ADD PUSH2 0x1832 JUMP JUMPDEST PUSH2 0x1897 DUP2 PUSH2 0x185A JUMP JUMPDEST DUP5 ADD SWAP2 POP POP SWAP3 SWAP2 POP POP JUMP JUMPDEST PUSH0 PUSH1 0x20 DUP3 ADD SWAP1 POP DUP2 DUP2 SUB PUSH0 DUP4 ADD MSTORE PUSH2 0x18BA DUP2 DUP5 PUSH2 0x186A JUMP JUMPDEST SWAP1 POP SWAP3 SWAP2 POP POP JUMP JUMPDEST PUSH0 DUP2 SWAP1 POP SWAP2 SWAP1 POP JUMP JUMPDEST PUSH2 0x18D4 DUP2 PUSH2 0x18C2 JUMP JUMPDEST DUP2 EQ PUSH2 0x18DE JUMPI PUSH0 DUP1 REVERT JUMPDEST POP JUMP JUMPDEST PUSH0 DUP2 CALLDATALOAD SWAP1 POP PUSH2 0x18EF DUP2 PUSH2 0x18CB JUMP JUMPDEST SWAP3 SWAP2 POP POP JUMP JUMPDEST PUSH0 PUSH1 0x20 DUP3 DUP5 SUB SLT ISZERO PUSH2 0x190A JUMPI PUSH2 0x1909 PUSH2 0x175D JUMP JUMPDEST JUMPDEST PUSH0 PUSH2 0x1917 DUP5 DUP3 DUP6 ADD PUSH2 0x18E1 JUMP JUMPDEST SWAP2 POP POP SWAP3 SWAP2 POP POP JUMP JUMPDEST PUSH0 PUSH20 0xFFFFFFFFFFFFFFFFFFFFFFFFFFFFFFFFFFFFFFFF DUP3 AND SWAP1 POP SWAP2 SWAP1 POP JUMP JUMPDEST PUSH0 PUSH2 0x1949 DUP3 PUSH2 0x1920 JUMP JUMPDEST SWAP1 POP SWAP2 SWAP1 POP JUMP JUMPDEST PUSH2 0x1959 DUP2 PUSH2 0x193F JUMP JUMPDEST DUP3 MSTORE POP POP JUMP JUMPDEST PUSH0 PUSH1 0x20 DUP3 ADD SWAP1 POP PUSH2 0x1972 PUSH0 DUP4 ADD DUP5 PUSH2 0x1950 JUMP JUMPDEST SWAP3 SWAP2 POP POP JUMP JUMPDEST PUSH2 0x1981 DUP2 PUSH2 0x193F JUMP JUMPDEST DUP2 EQ PUSH2 0x198B JUMPI PUSH0 DUP1 REVERT JUMPDEST POP JUMP JUMPDEST PUSH0 DUP2 CALLDATALOAD SWAP1 POP PUSH2 0x199C DUP2 PUSH2 0x1978 JUMP JUMPDEST SWAP3 SWAP2 POP POP JUMP JUMPDEST PUSH0 DUP1 PUSH1 0x40 DUP4 DUP6 SUB SLT ISZERO PUSH2 0x19B8 JUMPI PUSH2 0x19B7 PUSH2 0x175D JUMP JUMPDEST JUMPDEST PUSH0 PUSH2 0x19C5 DUP6 DUP3 DUP7 ADD PUSH2 0x198E JUMP JUMPDEST SWAP3 POP POP PUSH1 0x20 PUSH2 0x19D6 DUP6 DUP3 DUP7 ADD PUSH2 0x18E1 JUMP JUMPDEST SWAP2 POP POP SWAP3 POP SWAP3 SWAP1 POP JUMP JUMPDEST PUSH2 0x19E9 DUP2 PUSH2 0x18C2 JUMP JUMPDEST DUP3 MSTORE POP POP JUMP JUMPDEST PUSH0 PUSH1 0x20 DUP3 ADD SWAP1 POP PUSH2 0x1A02 PUSH0 DUP4 ADD DUP5 PUSH2 0x19E0 JUMP JUMPDEST SWAP3 SWAP2 POP POP JUMP JUMPDEST PUSH0 DUP1 PUSH0 PUSH1 0x60 DUP5 DUP7 SUB SLT ISZERO PUSH2 0x1A1F JUMPI PUSH2 0x1A1E PUSH2 0x175D JUMP JUMPDEST JUMPDEST PUSH0 PUSH2 0x1A2C DUP7 DUP3 DUP8 ADD PUSH2 0x198E JUMP JUMPDEST SWAP4 POP POP PUSH1 0x20 PUSH2 0x1A3D DUP7 DUP3 DUP8 ADD PUSH2 0x198E JUMP JUMPDEST SWAP3 POP POP PUSH1 0x40 PUSH2 0x1A4E DUP7 DUP3 DUP8 ADD PUSH2 0x18E1 JUMP JUMPDEST SWAP2 POP POP SWAP3 POP SWAP3 POP SWAP3 JUMP JUMPDEST PUSH0 PUSH1 0x20 DUP3 DUP5 SUB SLT ISZERO PUSH2 0x1A6D JUMPI PUSH2 0x1A6C PUSH2 0x175D JUMP JUMPDEST JUMPDEST PUSH0 PUSH2 0x1A7A DUP5 DUP3 DUP6 ADD PUSH2 0x198E JUMP JUMPDEST SWAP2 POP POP SWAP3 SWAP2 POP POP JUMP JUMPDEST PUSH2 0x1A8C DUP2 PUSH2 0x17E5 JUMP JUMPDEST DUP2 EQ PUSH2 0x1A96 JUMPI PUSH0 DUP1 REVERT JUMPDEST POP JUMP JUMPDEST PUSH0 DUP2 CALLDATALOAD SWAP1 POP PUSH2 0x1AA7 DUP2 PUSH2 0x1A83 JUMP JUMPDEST SWAP3 SWAP2 POP POP JUMP JUMPDEST PUSH0 DUP1 PUSH1 0x40 DUP4 DUP6 SUB SLT ISZERO PUSH2 0x1AC3 JUMPI PUSH2 0x1AC2 PUSH2 0x175D JUMP JUMPDEST JUMPDEST PUSH0 PUSH2 0x1AD0 DUP6 DUP3 DUP7 ADD PUSH2 0x198E JUMP JUMPDEST SWAP3 POP POP PUSH1 0x20 PUSH2 0x1AE1 DUP6 DUP3 DUP7 ADD PUSH2 0x1A99 JUMP JUMPDEST SWAP2 POP POP SWAP3 POP SWAP3 SWAP1 POP JUMP JUMPDEST PUSH0 DUP1 REVERT JUMPDEST PUSH0 DUP1 REVERT JUMPDEST PUSH32 0x4E487B7100000000000000000000000000000000000000000000000000000000 PUSH0 MSTORE PUSH1 0x41 PUSH1 0x4 MSTORE PUSH1 0x24 PUSH0 REVERT JUMPDEST PUSH2 0x1B29 DUP3 PUSH2 0x185A JUMP JUMPDEST DUP2 ADD DUP2 DUP2 LT PUSH8 0xFFFFFFFFFFFFFFFF DUP3 GT OR ISZERO PUSH2 0x1B48 JUMPI PUSH2 0x1B47 PUSH2 0x1AF3 JUMP JUMPDEST JUMPDEST DUP1 PUSH1 0x40 MSTORE POP POP POP JUMP JUMPDEST PUSH0 PUSH2 0x1B5A PUSH2 0x1754 JUMP JUMPDEST SWAP1 POP PUSH2 0x1B66 DUP3 DUP3 PUSH2 0x1B20 JUMP JUMPDEST SWAP2 SWAP1 POP JUMP JUMPDEST PUSH0 PUSH8 0xFFFFFFFFFFFFFFFF DUP3 GT ISZERO PUSH2 0x1B85 JUMPI PUSH2 0x1B84 PUSH2 0x1AF3 JUMP JUMPDEST JUMPDEST PUSH2 0x1B8E DUP3 PUSH2 0x185A JUMP JUMPDEST SWAP1 POP PUSH1 0x20 DUP2 ADD SWAP1 POP SWAP2 SWAP1 POP JUMP JUMPDEST DUP3 DUP2 DUP4 CALLDATACOPY PUSH0 DUP4 DUP4 ADD MSTORE POP POP POP JUMP JUMPDEST PUSH0 PUSH2 0x1BBB PUSH2 0x1BB6 DUP5 PUSH2 0x1B6B JUMP JUMPDEST PUSH2 0x1B51 JUMP JUMPDEST SWAP1 POP DUP3 DUP2 MSTORE PUSH1 0x20 DUP2 ADD DUP5 DUP5 DUP5 ADD GT ISZERO PUSH2 0x1BD7 JUMPI PUSH2 0x1BD6 PUSH2 0x1AEF JUMP JUMPDEST JUMPDEST PUSH2 0x1BE2 DUP5 DUP3 DUP6 PUSH2 0x1B9B JUMP JUMPDEST POP SWAP4 SWAP3 POP POP POP JUMP JUMPDEST PUSH0 DUP3 PUSH1 0x1F DUP4 ADD SLT PUSH2 0x1BFE JUMPI PUSH2 0x1BFD PUSH2 0x1AEB JUMP JUMPDEST JUMPDEST DUP2 CALLDATALOAD PUSH2 0x1C0E DUP5 DUP3 PUSH1 0x20 DUP7 ADD PUSH2 0x1BA9 JUMP JUMPDEST SWAP2 POP POP SWAP3 SWAP2 POP POP JUMP JUMPDEST PUSH0 DUP1 PUSH0 DUP1 PUSH1 0x80 DUP6 DUP8 SUB SLT ISZERO PUSH2 0x1C2F JUMPI PUSH2 0x1C2E PUSH2 0x175D JUMP JUMPDEST JUMPDEST PUSH0 PUSH2 0x1C3C DUP8 DUP3 DUP9 ADD PUSH2 0x198E JUMP JUMPDEST SWAP5 POP POP PUSH1 0x20 PUSH2 0x1C4D DUP8 DUP3 DUP9 ADD PUSH2 0x198E JUMP JUMPDEST SWAP4 POP POP PUSH1 0x40 PUSH2 0x1C5E DUP8 DUP3 DUP9 ADD PUSH2 0x18E1 JUMP JUMPDEST SWAP3 POP POP PUSH1 0x60 DUP6 ADD CALLDATALOAD PUSH8 0xFFFFFFFFFFFFFFFF DUP2 GT ISZERO PUSH2 0x1C7F JUMPI PUSH2 0x1C7E PUSH2 0x1761 JUMP JUMPDEST JUMPDEST PUSH2 0x1C8B DUP8 DUP3 DUP9 ADD PUSH2 0x1BEA JUMP JUMPDEST SWAP2 POP POP SWAP3 SWAP6 SWAP2 SWAP5 POP SWAP3 POP JUMP JUMPDEST PUSH0 DUP1 PUSH1 0x40 DUP4 DUP6 SUB SLT ISZERO PUSH2 0x1CAD JUMPI PUSH2 0x1CAC PUSH2 0x175D JUMP JUMPDEST JUMPDEST PUSH0 PUSH2 0x1CBA DUP6 DUP3 DUP7 ADD PUSH2 0x198E JUMP JUMPDEST SWAP3 POP POP PUSH1 0x20 PUSH2 0x1CCB DUP6 DUP3 DUP7 ADD PUSH2 0x198E JUMP JUMPDEST SWAP2 POP POP SWAP3 POP SWAP3 SWAP1 POP JUMP JUMPDEST PUSH32 0x4E487B7100000000000000000000000000000000000000000000000000000000 PUSH0 MSTORE PUSH1 0x22 PUSH1 0x4 MSTORE PUSH1 0x24 PUSH0 REVERT JUMPDEST PUSH0 PUSH1 0x2 DUP3 DIV SWAP1 POP PUSH1 0x1 DUP3 AND DUP1 PUSH2 0x1D19 JUMPI PUSH1 0x7F DUP3 AND SWAP2 POP JUMPDEST PUSH1 0x20 DUP3 LT DUP2 SUB PUSH2 0x1D2C JUMPI PUSH2 0x1D2B PUSH2 0x1CD5 JUMP JUMPDEST JUMPDEST POP SWAP2 SWAP1 POP JUMP JUMPDEST PUSH32 0x4552433732313A20617070726F76616C20746F2063757272656E74206F776E65 PUSH0 DUP3 ADD MSTORE PUSH32 0x7200000000000000000000000000000000000000000000000000000000000000 PUSH1 0x20 DUP3 ADD MSTORE POP JUMP JUMPDEST PUSH0 PUSH2 0x1D8C PUSH1 0x21 DUP4 PUSH2 0x1822 JUMP JUMPDEST SWAP2 POP PUSH2 0x1D97 DUP3 PUSH2 0x1D32 JUMP JUMPDEST PUSH1 0x40 DUP3 ADD SWAP1 POP SWAP2 SWAP1 POP JUMP JUMPDEST PUSH0 PUSH1 0x20 DUP3 ADD SWAP1 POP DUP2 DUP2 SUB PUSH0 DUP4 ADD MSTORE PUSH2 0x1DB9 DUP2 PUSH2 0x1D80 JUMP JUMPDEST SWAP1 POP SWAP2 SWAP1 POP JUMP JUMPDEST PUSH32 0x4552433732313A20617070726F76652063616C6C6572206973206E6F7420746F PUSH0 DUP3 ADD MSTORE PUSH32 0x6B656E206F776E6572206F7220617070726F76656420666F7220616C6C000000 PUSH1 0x20 DUP3 ADD MSTORE POP JUMP JUMPDEST PUSH0 PUSH2 0x1E1A PUSH1 0x3D DUP4 PUSH2 0x1822 JUMP JUMPDEST SWAP2 POP PUSH2 0x1E25 DUP3 PUSH2 0x1DC0 JUMP JUMPDEST PUSH1 0x40 DUP3 ADD SWAP1 POP SWAP2 SWAP1 POP JUMP JUMPDEST PUSH0 PUSH1 0x20 DUP3 ADD SWAP1 POP DUP2 DUP2 SUB PUSH0 DUP4 ADD MSTORE PUSH2 0x1E47 DUP2 PUSH2 0x1E0E JUMP JUMPDEST SWAP1 POP SWAP2 SWAP1 POP JUMP JUMPDEST PUSH32 0x6D61782033204E46547300000000000000000000000000000000000000000000 PUSH0 DUP3 ADD MSTORE POP JUMP JUMPDEST PUSH0 PUSH2 0x1E82 PUSH1 0xA DUP4 PUSH2 0x1822 JUMP JUMPDEST SWAP2 POP PUSH2 0x1E8D DUP3 PUSH2 0x1E4E JUMP JUMPDEST PUSH1 0x20 DUP3 ADD SWAP1 POP SWAP2 SWAP1 POP JUMP JUMPDEST PUSH0 PUSH1 0x20 DUP3 ADD SWAP1 POP DUP2 DUP2 SUB PUSH0 DUP4 ADD MSTORE PUSH2 0x1EAF DUP2 PUSH2 0x1E76 JUMP JUMPDEST SWAP1 POP SWAP2 SWAP1 POP JUMP JUMPDEST PUSH32 0x4E487B7100000000000000000000000000000000000000000000000000000000 PUSH0 MSTORE PUSH1 0x11 PUSH1 0x4 MSTORE PUSH1 0x24 PUSH0 REVERT JUMPDEST PUSH0 PUSH2 0x1EED DUP3 PUSH2 0x18C2 JUMP JUMPDEST SWAP2 POP PUSH32 0xFFFFFFFFFFFFFFFFFFFFFFFFFFFFFFFFFFFFFFFFFFFFFFFFFFFFFFFFFFFFFFFF DUP3 SUB PUSH2 0x1F1F JUMPI PUSH2 0x1F1E PUSH2 0x1EB6 JUMP JUMPDEST JUMPDEST PUSH1 0x1 DUP3 ADD SWAP1 POP SWAP2 SWAP1 POP JUMP JUMPDEST PUSH32 0x4552433732313A2063616C6C6572206973206E6F7420746F6B656E206F776E65 PUSH0 DUP3 ADD MSTORE PUSH32 0x72206F7220617070726F76656400000000000000000000000000000000000000 PUSH1 0x20 DUP3 ADD MSTORE POP JUMP JUMPDEST PUSH0 PUSH2 0x1F84 PUSH1 0x2D DUP4 PUSH2 0x1822 JUMP JUMPDEST SWAP2 POP PUSH2 0x1F8F DUP3 PUSH2 0x1F2A JUMP JUMPDEST PUSH1 0x40 DUP3 ADD SWAP1 POP SWAP2 SWAP1 POP JUMP JUMPDEST PUSH0 PUSH1 0x20 DUP3 ADD SWAP1 POP DUP2 DUP2 SUB PUSH0 DUP4 ADD MSTORE PUSH2 0x1FB1 DUP2 PUSH2 0x1F78 JUMP JUMPDEST SWAP1 POP SWAP2 SWAP1 POP JUMP JUMPDEST PUSH32 0x4552433732313A20696E76616C696420746F6B656E2049440000000000000000 PUSH0 DUP3 ADD MSTORE POP JUMP JUMPDEST PUSH0 PUSH2 0x1FEC PUSH1 0x18 DUP4 PUSH2 0x1822 JUMP JUMPDEST SWAP2 POP PUSH2 0x1FF7 DUP3 PUSH2 0x1FB8 JUMP JUMPDEST PUSH1 0x20 DUP3 ADD SWAP1 POP SWAP2 SWAP1 POP JUMP JUMPDEST PUSH0 PUSH1 0x20 DUP3 ADD SWAP1 POP DUP2 DUP2 SUB PUSH0 DUP4 ADD MSTORE PUSH2 0x2019 DUP2 PUSH2 0x1FE0 JUMP JUMPDEST SWAP1 POP SWAP2 SWAP1 POP JUMP JUMPDEST PUSH32 0x4552433732313A2061646472657373207A65726F206973206E6F742061207661 PUSH0 DUP3 ADD MSTORE PUSH32 0x6C6964206F776E65720000000000000000000000000000000000000000000000 PUSH1 0x20 DUP3 ADD MSTORE POP JUMP JUMPDEST PUSH0 PUSH2 0x207A PUSH1 0x29 DUP4 PUSH2 0x1822 JUMP JUMPDEST SWAP2 POP PUSH2 0x2085 DUP3 PUSH2 0x2020 JUMP JUMPDEST PUSH1 0x40 DUP3 ADD SWAP1 POP SWAP2 SWAP1 POP JUMP JUMPDEST PUSH0 PUSH1 0x20 DUP3 ADD SWAP1 POP DUP2 DUP2 SUB PUSH0 DUP4 ADD MSTORE PUSH2 0x20A7 DUP2 PUSH2 0x206E JUMP JUMPDEST SWAP1 POP SWAP2 SWAP1 POP JUMP JUMPDEST PUSH0 DUP2 SWAP1 POP SWAP3 SWAP2 POP POP JUMP JUMPDEST PUSH0 PUSH2 0x20C2 DUP3 PUSH2 0x1818 JUMP JUMPDEST PUSH2 0x20CC DUP2 DUP6 PUSH2 0x20AE JUMP JUMPDEST SWAP4 POP PUSH2 0x20DC DUP2 DUP6 PUSH1 0x20 DUP7 ADD PUSH2 0x1832 JUMP JUMPDEST DUP1 DUP5 ADD SWAP2 POP POP SWAP3 SWAP2 POP POP JUMP JUMPDEST PUSH0 PUSH2 0x20F3 DUP3 DUP6 PUSH2 0x20B8 JUMP JUMPDEST SWAP2 POP PUSH2 0x20FF DUP3 DUP5 PUSH2 0x20B8 JUMP JUMPDEST SWAP2 POP DUP2 SWAP1 POP SWAP4 SWAP3 POP POP POP JUMP JUMPDEST PUSH32 0x4552433732313A206D696E7420746F20746865207A65726F2061646472657373 PUSH0 DUP3 ADD MSTORE POP JUMP JUMPDEST PUSH0 PUSH2 0x213F PUSH1 0x20 DUP4 PUSH2 0x1822 JUMP JUMPDEST SWAP2 POP PUSH2 0x214A DUP3 PUSH2 0x210B JUMP JUMPDEST PUSH1 0x20 DUP3 ADD SWAP1 POP SWAP2 SWAP1 POP JUMP JUMPDEST PUSH0 PUSH1 0x20 DUP3 ADD SWAP1 POP DUP2 DUP2 SUB PUSH0 DUP4 ADD MSTORE PUSH2 0x216C DUP2 PUSH2 0x2133 JUMP JUMPDEST SWAP1 POP SWAP2 SWAP1 POP JUMP JUMPDEST PUSH32 0x4552433732313A20746F6B656E20616C7265616479206D696E74656400000000 PUSH0 DUP3 ADD MSTORE POP JUMP JUMPDEST PUSH0 PUSH2 0x21A7 PUSH1 0x1C DUP4 PUSH2 0x1822 JUMP JUMPDEST SWAP2 POP PUSH2 0x21B2 DUP3 PUSH2 0x2173 JUMP JUMPDEST PUSH1 0x20 DUP3 ADD SWAP1 POP SWAP2 SWAP1 POP JUMP JUMPDEST PUSH0 PUSH1 0x20 DUP3 ADD SWAP1 POP DUP2 DUP2 SUB PUSH0 DUP4 ADD MSTORE PUSH2 0x21D4 DUP2 PUSH2 0x219B JUMP JUMPDEST SWAP1 POP SWAP2 SWAP1 POP JUMP JUMPDEST PUSH32 0x4552433732313A207472616E736665722066726F6D20696E636F727265637420 PUSH0 DUP3 ADD MSTORE PUSH32 0x6F776E6572000000000000000000000000000000000000000000000000000000 PUSH1 0x20 DUP3 ADD MSTORE POP JUMP JUMPDEST PUSH0 PUSH2 0x2235 PUSH1 0x25 DUP4 PUSH2 0x1822 JUMP JUMPDEST SWAP2 POP PUSH2 0x2240 DUP3 PUSH2 0x21DB JUMP JUMPDEST PUSH1 0x40 DUP3 ADD SWAP1 POP SWAP2 SWAP1 POP JUMP JUMPDEST PUSH0 PUSH1 0x20 DUP3 ADD SWAP1 POP DUP2 DUP2 SUB PUSH0 DUP4 ADD MSTORE PUSH2 0x2262 DUP2 PUSH2 0x2229 JUMP JUMPDEST SWAP1 POP SWAP2 SWAP1 POP JUMP JUMPDEST PUSH32 0x4552433732313A207472616E7366657220746F20746865207A65726F20616464 PUSH0 DUP3 ADD MSTORE PUSH32 0x7265737300000000000000000000000000000000000000000000000000000000 PUSH1 0x20 DUP3 ADD MSTORE POP JUMP JUMPDEST PUSH0 PUSH2 0x22C3 PUSH1 0x24 DUP4 PUSH2 0x1822 JUMP JUMPDEST SWAP2 POP PUSH2 0x22CE DUP3 PUSH2 0x2269 JUMP JUMPDEST PUSH1 0x40 DUP3 ADD SWAP1 POP SWAP2 SWAP1 POP JUMP JUMPDEST PUSH0 PUSH1 0x20 DUP3 ADD SWAP1 POP DUP2 DUP2 SUB PUSH0 DUP4 ADD MSTORE PUSH2 0x22F0 DUP2 PUSH2 0x22B7 JUMP JUMPDEST SWAP1 POP SWAP2 SWAP1 POP JUMP JUMPDEST PUSH32 0x4552433732313A20617070726F766520746F2063616C6C657200000000000000 PUSH0 DUP3 ADD MSTORE POP JUMP JUMPDEST PUSH0 PUSH2 0x232B PUSH1 0x19 DUP4 PUSH2 0x1822 JUMP JUMPDEST SWAP2 POP PUSH2 0x2336 DUP3 PUSH2 0x22F7 JUMP JUMPDEST PUSH1 0x20 DUP3 ADD SWAP1 POP SWAP2 SWAP1 POP JUMP JUMPDEST PUSH0 PUSH1 0x20 DUP3 ADD SWAP1 POP DUP2 DUP2 SUB PUSH0 DUP4 ADD MSTORE PUSH2 0x2358 DUP2 PUSH2 0x231F JUMP JUMPDEST SWAP1 POP SWAP2 SWAP1 POP JUMP JUMPDEST PUSH32 0x4552433732313A207472616E7366657220746F206E6F6E204552433732315265 PUSH0 DUP3 ADD MSTORE PUSH32 0x63656976657220696D706C656D656E7465720000000000000000000000000000 PUSH1 0x20 DUP3 ADD MSTORE POP JUMP JUMPDEST PUSH0 PUSH2 0x23B9 PUSH1 0x32 DUP4 PUSH2 0x1822 JUMP JUMPDEST SWAP2 POP PUSH2 0x23C4 DUP3 PUSH2 0x235F JUMP JUMPDEST PUSH1 0x40 DUP3 ADD SWAP1 POP SWAP2 SWAP1 POP JUMP JUMPDEST PUSH0 PUSH1 0x20 DUP3 ADD SWAP1 POP DUP2 DUP2 SUB PUSH0 DUP4 ADD MSTORE PUSH2 0x23E6 DUP2 PUSH2 0x23AD JUMP JUMPDEST SWAP1 POP SWAP2 SWAP1 POP JUMP JUMPDEST PUSH32 0x4E487B7100000000000000000000000000000000000000000000000000000000 PUSH0 MSTORE PUSH1 0x12 PUSH1 0x4 MSTORE PUSH1 0x24 PUSH0 REVERT JUMPDEST PUSH0 DUP2 MLOAD SWAP1 POP SWAP2 SWAP1 POP JUMP JUMPDEST PUSH0 DUP3 DUP3 MSTORE PUSH1 0x20 DUP3 ADD SWAP1 POP SWAP3 SWAP2 POP POP JUMP JUMPDEST PUSH0 PUSH2 0x243E DUP3 PUSH2 0x241A JUMP JUMPDEST PUSH2 0x2448 DUP2 DUP6 PUSH2 0x2424 JUMP JUMPDEST SWAP4 POP PUSH2 0x2458 DUP2 DUP6 PUSH1 0x20 DUP7 ADD PUSH2 0x1832 JUMP JUMPDEST PUSH2 0x2461 DUP2 PUSH2 0x185A JUMP JUMPDEST DUP5 ADD SWAP2 POP POP SWAP3 SWAP2 POP POP JUMP JUMPDEST PUSH0 PUSH1 0x80 DUP3 ADD SWAP1 POP PUSH2 0x247F PUSH0 DUP4 ADD DUP8 PUSH2 0x1950 JUMP JUMPDEST PUSH2 0x248C PUSH1 0x20 DUP4 ADD DUP7 PUSH2 0x1950 JUMP JUMPDEST PUSH2 0x2499 PUSH1 0x40 DUP4 ADD DUP6 PUSH2 0x19E0 JUMP JUMPDEST DUP2 DUP2 SUB PUSH1 0x60 DUP4 ADD MSTORE PUSH2 0x24AB DUP2 DUP5 PUSH2 0x2434 JUMP JUMPDEST SWAP1 POP SWAP6 SWAP5 POP POP POP POP POP JUMP JUMPDEST PUSH0 DUP2 MLOAD SWAP1 POP PUSH2 0x24C4 DUP2 PUSH2 0x1790 JUMP JUMPDEST SWAP3 SWAP2 POP POP JUMP JUMPDEST PUSH0 PUSH1 0x20 DUP3 DUP5 SUB SLT ISZERO PUSH2 0x24DF JUMPI PUSH2 0x24DE PUSH2 0x175D JUMP JUMPDEST JUMPDEST PUSH0 PUSH2 0x24EC DUP5 DUP3 DUP6 ADD PUSH2 0x24B6 JUMP JUMPDEST SWAP2 POP POP SWAP3 SWAP2 POP POP JUMP INVALID LOG2 PUSH5 0x6970667358 0x22 SLT KECCAK256 0x28 PUSH31 0x141133C528E9FA3A2FF13CFA87196E5CA33DDFB9FB330B300C19BEE1121964 PUSH20 0x6F6C634300081500330000000000000000000000 "
		},
		"gasEstimates": {
			"creation": {
				"codeDepositCost": "1903000",
				"executionCost": "infinite",
				"totalCost": "infinite"
			},
			"external": {
				"approve(address,uint256)": "infinite",
				"balanceOf(address)": "2931",
				"getApproved(uint256)": "5282",
				"isApprovedForAll(address,address)": "infinite",
				"mint()": "infinite",
				"name()": "infinite",
				"ownerOf(uint256)": "3028",
				"safeTransferFrom(address,address,uint256)": "infinite",
				"safeTransferFrom(address,address,uint256,bytes)": "infinite",
				"setApprovalForAll(address,bool)": "infinite",
				"success()": "2631",
				"supportsInterface(bytes4)": "787",
				"symbol()": "infinite",
				"tokenURI(uint256)": "3437",
				"totalSupply()": "2492",
				"transferFrom(address,address,uint256)": "infinite"
			}
		},
		"methodIdentifiers": {
			"approve(address,uint256)": "095ea7b3",
			"balanceOf(address)": "70a08231",
			"getApproved(uint256)": "081812fc",
			"isApprovedForAll(address,address)": "e985e9c5",
			"mint()": "1249c58b",
			"name()": "06fdde03",
			"ownerOf(uint256)": "6352211e",
			"safeTransferFrom(address,address,uint256)": "42842e0e",
			"safeTransferFrom(address,address,uint256,bytes)": "b88d4fde",
			"setApprovalForAll(address,bool)": "a22cb465",
			"success()": "0b93381b",
			"supportsInterface(bytes4)": "01ffc9a7",
			"symbol()": "95d89b41",
			"tokenURI(uint256)": "c87b56dd",
			"totalSupply()": "18160ddd",
			"transferFrom(address,address,uint256)": "23b872dd"
		}
	},
	"abi": [
		{
			"inputs": [],
			"stateMutability": "nonpayable",
			"type": "constructor"
		},
		{
			"anonymous": false,
			"inputs": [
				{
					"indexed": true,
					"internalType": "address",
					"name": "owner",
					"type": "address"
				},
				{
					"indexed": true,
					"internalType": "address",
					"name": "approved",
					"type": "address"
				},
				{
					"indexed": true,
					"internalType": "uint256",
					"name": "tokenId",
					"type": "uint256"
				}
			],
			"name": "Approval",
			"type": "event"
		},
		{
			"anonymous": false,
			"inputs": [
				{
					"indexed": true,
					"internalType": "address",
					"name": "owner",
					"type": "address"
				},
				{
					"indexed": true,
					"internalType": "address",
					"name": "operator",
					"type": "address"
				},
				{
					"indexed": false,
					"internalType": "bool",
					"name": "approved",
					"type": "bool"
				}
			],
			"name": "ApprovalForAll",
			"type": "event"
		},
		{
			"anonymous": false,
			"inputs": [
				{
					"indexed": true,
					"internalType": "address",
					"name": "from",
					"type": "address"
				},
				{
					"indexed": true,
					"internalType": "address",
					"name": "to",
					"type": "address"
				},
				{
					"indexed": true,
					"internalType": "uint256",
					"name": "tokenId",
					"type": "uint256"
				}
			],
			"name": "Transfer",
			"type": "event"
		},
		{
			"inputs": [
				{
					"internalType": "address",
					"name": "to",
					"type": "address"
				},
				{
					"internalType": "uint256",
					"name": "tokenId",
					"type": "uint256"
				}
			],
			"name": "approve",
			"outputs": [],
			"stateMutability": "nonpayable",
			"type": "function"
		},
		{
			"inputs": [
				{
					"internalType": "address",
					"name": "owner",
					"type": "address"
				}
			],
			"name": "balanceOf",
			"outputs": [
				{
					"internalType": "uint256",
					"name": "",
					"type": "uint256"
				}
			],
			"stateMutability": "view",
			"type": "function"
		},
		{
			"inputs": [
				{
					"internalType": "uint256",
					"name": "tokenId",
					"type": "uint256"
				}
			],
			"name": "getApproved",
			"outputs": [
				{
					"internalType": "address",
					"name": "",
					"type": "address"
				}
			],
			"stateMutability": "view",
			"type": "function"
		},
		{
			"inputs": [
				{
					"internalType": "address",
					"name": "owner",
					"type": "address"
				},
				{
					"internalType": "address",
					"name": "operator",
					"type": "address"
				}
			],
			"name": "isApprovedForAll",
			"outputs": [
				{
					"internalType": "bool",
					"name": "",
					"type": "bool"
				}
			],
			"stateMutability": "view",
			"type": "function"
		},
		{
			"inputs": [],
			"name": "mint",
			"outputs": [],
			"stateMutability": "nonpayable",
			"type": "function"
		},
		{
			"inputs": [],
			"name": "name",
			"outputs": [
				{
					"internalType": "string",
					"name": "",
					"type": "string"
				}
			],
			"stateMutability": "view",
			"type": "function"
		},
		{
			"inputs": [
				{
					"internalType": "uint256",
					"name": "tokenId",
					"type": "uint256"
				}
			],
			"name": "ownerOf",
			"outputs": [
				{
					"internalType": "address",
					"name": "",
					"type": "address"
				}
			],
			"stateMutability": "view",
			"type": "function"
		},
		{
			"inputs": [
				{
					"internalType": "address",
					"name": "from",
					"type": "address"
				},
				{
					"internalType": "address",
					"name": "to",
					"type": "address"
				},
				{
					"internalType": "uint256",
					"name": "tokenId",
					"type": "uint256"
				}
			],
			"name": "safeTransferFrom",
			"outputs": [],
			"stateMutability": "nonpayable",
			"type": "function"
		},
		{
			"inputs": [
				{
					"internalType": "address",
					"name": "from",
					"type": "address"
				},
				{
					"internalType": "address",
					"name": "to",
					"type": "address"
				},
				{
					"internalType": "uint256",
					"name": "tokenId",
					"type": "uint256"
				},
				{
					"internalType": "bytes",
					"name": "data",
					"type": "bytes"
				}
			],
			"name": "safeTransferFrom",
			"outputs": [],
			"stateMutability": "nonpayable",
			"type": "function"
		},
		{
			"inputs": [
				{
					"internalType": "address",
					"name": "operator",
					"type": "address"
				},
				{
					"internalType": "bool",
					"name": "approved",
					"type": "bool"
				}
			],
			"name": "setApprovalForAll",
			"outputs": [],
			"stateMutability": "nonpayable",
			"type": "function"
		},
		{
			"inputs": [],
			"name": "success",
			"outputs": [
				{
					"internalType": "bool",
					"name": "",
					"type": "bool"
				}
			],
			"stateMutability": "view",
			"type": "function"
		},
		{
			"inputs": [
				{
					"internalType": "bytes4",
					"name": "interfaceId",
					"type": "bytes4"
				}
			],
			"name": "supportsInterface",
			"outputs": [
				{
					"internalType": "bool",
					"name": "",
					"type": "bool"
				}
			],
			"stateMutability": "view",
			"type": "function"
		},
		{
			"inputs": [],
			"name": "symbol",
			"outputs": [
				{
					"internalType": "string",
					"name": "",
					"type": "string"
				}
			],
			"stateMutability": "view",
			"type": "function"
		},
		{
			"inputs": [
				{
					"internalType": "uint256",
					"name": "tokenId",
					"type": "uint256"
				}
			],
			"name": "tokenURI",
			"outputs": [
				{
					"internalType": "string",
					"name": "",
					"type": "string"
				}
			],
			"stateMutability": "view",
			"type": "function"
		},
		{
			"inputs": [],
			"name": "totalSupply",
			"outputs": [
				{
					"internalType": "uint256",
					"name": "",
					"type": "uint256"
				}
			],
			"stateMutability": "view",
			"type": "function"
		},
		{
			"inputs": [
				{
					"internalType": "address",
					"name": "from",
					"type": "address"
				},
				{
					"internalType": "address",
					"name": "to",
					"type": "address"
				},
				{
					"internalType": "uint256",
					"name": "tokenId",
					"type": "uint256"
				}
			],
			"name": "transferFrom",
			"outputs": [],
			"stateMutability": "nonpayable",
			"type": "function"
		}
	]
}